{
  "transactions": [
    {
      "hash": "0x384ec76fb0f7c76853279974fcc7bae75d860d6745e4f327dd595e60041953ed",
      "transactionType": "CALL",
      "contractName": null,
      "contractAddress": "0x69a9264a3c40f7ea03840eee4fe7bb51137d1d01",
      "function": "registerCompany((string,string,uint8))",
      "arguments": [
        "(Sample Company, Sample Jurisdiction, 0)"
      ],
      "transaction": {
        "from": "0x3c5a809e712d30d932b71edb066fa2eedee6ad58",
        "to": "0x69a9264a3c40f7ea03840eee4fe7bb51137d1d01",
        "gas": "0x50ef2",
        "value": "0x0",
        "input": "0x72ea08b00000000000000000000000000000000000000000000000000000000000000020000000000000000000000000000000000000000000000000000000000000006000000000000000000000000000000000000000000000000000000000000000a00000000000000000000000000000000000000000000000000000000000000000000000000000000000000000000000000000000000000000000000000000000e53616d706c6520436f6d70616e79000000000000000000000000000000000000000000000000000000000000000000000000000000000000000000000000001353616d706c65204a7572697364696374696f6e00000000000000000000000000",
        "nonce": "0x38",
        "chainId": "0x33"
      },
      "additionalContracts": [],
      "isFixedGasLimit": false
    }
  ],
  "receipts": [
    {
      "status": "0x1",
      "cumulativeGasUsed": "0x3b20d",
      "logs": [
        {
          "address": "0x28072e6a64a3ddf298ebd274202fa05b8302b5e0",
          "topics": [
            "0x03cd167b04980b915d7fe24c6a5a08be27729b35da3f72c49aa30fbcd5aa6ee0",
            "0x0000000000000000000000000000000000000000000000000000000000000001",
            "0x0000000000000000000000003c5a809e712d30d932b71edb066fa2eedee6ad58"
          ],
          "data": "0x0000000000000000000000000000000000000000000000000000000000000060000000000000000000000000000000000000000000000000000000000000000000000000000000000000000000000000000000000000000000000000000000a0000000000000000000000000000000000000000000000000000000000000000e53616d706c6520436f6d70616e79000000000000000000000000000000000000000000000000000000000000000000000000000000000000000000000000001353616d706c65204a7572697364696374696f6e00000000000000000000000000",
          "blockHash": "0xe115cfe03463aa70ed886e18f1621fb1576276fc342fcae014c31cee74096363",
          "blockNumber": "0x4868b5c",
          "transactionHash": "0x384ec76fb0f7c76853279974fcc7bae75d860d6745e4f327dd595e60041953ed",
          "transactionIndex": "0x0",
          "logIndex": "0x0",
          "removed": false
        },
        {
          "address": "0x69a9264a3c40f7ea03840eee4fe7bb51137d1d01",
          "topics": [
            "0xefa980f807c93e7f0adb08a55b41b92038bae1418c84ff23933499d67e138559",
            "0x0000000000000000000000000000000000000000000000000000000000000001",
            "0x0000000000000000000000003c5a809e712d30d932b71edb066fa2eedee6ad58"
          ],
          "data": "0x000000000000000000000000000000000000000000000000000000000000006000000000000000000000000000000000000000000000000000000000000000a00000000000000000000000000000000000000000000000000000000000000000000000000000000000000000000000000000000000000000000000000000000e53616d706c6520436f6d70616e79000000000000000000000000000000000000000000000000000000000000000000000000000000000000000000000000001353616d706c65204a7572697364696374696f6e00000000000000000000000000",
          "blockHash": "0xe115cfe03463aa70ed886e18f1621fb1576276fc342fcae014c31cee74096363",
          "blockNumber": "0x4868b5c",
          "transactionHash": "0x384ec76fb0f7c76853279974fcc7bae75d860d6745e4f327dd595e60041953ed",
          "transactionIndex": "0x0",
          "logIndex": "0x1",
          "removed": false
        }
      ],
      "logsBloom": "0x000000000000000000000000000000000000000000000000000000000000000000000a0000000000000000000000000000000020100000000000000000040000000000000000000000000000000000000000000000040000000000000000000000000000000000000800000040000000000000000000000000000000000000000000000000000000000000000000000000000000000000000000000001000000000000000000000000000800000000000000000000000020000000000000000000000804000000000000000000000000000000000000080000000000000042000000000000000102000000000000000000000000000000000000000000000000",
      "type": "0x2",
      "transactionHash": "0x384ec76fb0f7c76853279974fcc7bae75d860d6745e4f327dd595e60041953ed",
      "transactionIndex": "0x0",
      "blockHash": "0xe115cfe03463aa70ed886e18f1621fb1576276fc342fcae014c31cee74096363",
      "blockNumber": "0x4868b5c",
      "gasUsed": "0x3b20d",
      "effectiveGasPrice": "0x2e90edd01",
      "from": "0x3c5a809e712d30d932b71edb066fa2eedee6ad58",
      "to": "0x69a9264a3c40f7ea03840eee4fe7bb51137d1d01",
      "contractAddress": null
    }
  ],
  "libraries": [],
  "pending": [],
  "returns": {},
  "timestamp": 1749017348,
  "chain": 51,
  "commit": "2fd1f9e"
}