{
  "transactions": [
    {
      "hash": "0x70370b15a11c5e1887742d59d1207050bdaa4b92a90217f5cfc406617e852d37",
      "transactionType": "CALL",
      "contractName": null,
      "contractAddress": "0x0c91daef85fc0a5509d18a7fe8a75baf8dca9280",
      "function": "createProject(uint256,(string,string,bytes32,uint16,uint256,uint256,uint256,bytes32,uint256,uint256,uint256,uint256,uint256,uint256,bytes32,bytes32,address,address))",
      "arguments": [
        "1",
        "(Gemini, GMI, 0x436f6d6d65726369616c00000000000000000000000000000000000000000000, 51, 10000000000000000000, 80000000000000000000, 100000000000000000000, 0x3100000000000000000000000000000000000000000000000000000000000000, 3, 100000000000000000000, 86400, 10, 10, 100000000000000000000, 0x3100000000000000000000000000000000000000000000000000000000000000, 0x3100000000000000000000000000000000000000000000000000000000000000, 0x3c5a809e712D30D932b71EdB066FA2EEDEE6Ad58, 0x0C91DAEF85FC0a5509D18A7fE8a75baF8DCa9280)"
      ],
      "transaction": {
        "from": "0x3c5a809e712d30d932b71edb066fa2eedee6ad58",
        "to": "0x0c91daef85fc0a5509d18a7fe8a75baf8dca9280",
        "gas": "0x288ec2",
        "value": "0x0",
        "input": "0x21763ac60000000000000000000000000000000000000000000000000000000000000001000000000000000000000000000000000000000000000000000000000000004000000000000000000000000000000000000000000000000000000000000002400000000000000000000000000000000000000000000000000000000000000280436f6d6d65726369616c0000000000000000000000000000000000000000000000000000000000000000000000000000000000000000000000000000000000330000000000000000000000000000000000000000000000008ac7230489e80000000000000000000000000000000000000000000000000004563918244f4000000000000000000000000000000000000000000000000000056bc75e2d63100000310000000000000000000000000000000000000000000000000000000000000000000000000000000000000000000000000000000000000000000000000000030000000000000000000000000000000000000000000000056bc75e2d631000000000000000000000000000000000000000000000000000000000000000015180000000000000000000000000000000000000000000000000000000000000000a000000000000000000000000000000000000000000000000000000000000000a0000000000000000000000000000000000000000000000056bc75e2d63100000310000000000000000000000000000000000000000000000000000000000000031000000000000000000000000000000000000000000000000000000000000000000000000000000000000003c5a809e712d30d932b71edb066fa2eedee6ad580000000000000000000000000c91daef85fc0a5509d18a7fe8a75baf8dca9280000000000000000000000000000000000000000000000000000000000000000647656d696e6900000000000000000000000000000000000000000000000000000000000000000000000000000000000000000000000000000000000000000003474d490000000000000000000000000000000000000000000000000000000000",
        "nonce": "0x4b",
        "chainId": "0x33"
      },
      "additionalContracts": [
        {
          "transactionType": "CREATE",
          "address": "0x487f489b905b9a58520e97f1274c189f94d02be7",
          "initCode": "0x3d602d80600a3d3981f3363d3d373d3d3d363d73dbdeb49bced0cfec7472c99e4ae4fb2abae5b9575af43d82803e903d91602b57fd5bf3"
        },
        {
          "transactionType": "CREATE",
          "address": "0x7658469510727a85ab337efa9904714203a2a7ca",
          "initCode": "0x3d602d80600a3d3981f3363d3d373d3d3d363d7334c750896b79f5d603b68c787d1d4fcf4f9012565af43d82803e903d91602b57fd5bf3"
        },
        {
          "transactionType": "CREATE",
          "address": "0xdf9222db36f90047c3f237f1caa902033f97a9f3",
          "initCode": "0x3d602d80600a3d3981f3363d3d373d3d3d363d7369ba3f5dcc3cfd049a9c141f8f52450b5ea41e025af43d82803e903d91602b57fd5bf3"
        },
        {
          "transactionType": "CREATE",
          "address": "0x19add1c01a66b9fa648bd9366eedab775890151a",
          "initCode": "0x3d602d80600a3d3981f3363d3d373d3d3d363d73d5f40fb9e104a2ec58a803b42e381a50b72a10345af43d82803e903d91602b57fd5bf3"
        }
      ],
      "isFixedGasLimit": false
    }
  ],
  "receipts": [
    {
      "status": "0x1",
      "cumulativeGasUsed": "0x1d744b",
      "logs": [
        {
          "address": "0x487f489b905b9a58520e97f1274c189f94d02be7",
          "topics": [
            "0x2f8788117e7eff1d82e926ec794901d17c78024a50270940304540a733656f0d",
            "0x0000000000000000000000000000000000000000000000000000000000000000",
            "0x0000000000000000000000003c5a809e712d30d932b71edb066fa2eedee6ad58",
            "0x0000000000000000000000000c91daef85fc0a5509d18a7fe8a75baf8dca9280"
          ],
          "data": "0x",
          "blockHash": "0xcc4628eea4d96cd6190c87f89fd8fc555bcc2be879d6553f4e9313d1419a2ea9",
          "blockNumber": "0x4868e63",
          "transactionHash": "0x70370b15a11c5e1887742d59d1207050bdaa4b92a90217f5cfc406617e852d37",
          "transactionIndex": "0x0",
          "logIndex": "0x0",
          "removed": false
        },
        {
          "address": "0x487f489b905b9a58520e97f1274c189f94d02be7",
          "topics": [
            "0x2f8788117e7eff1d82e926ec794901d17c78024a50270940304540a733656f0d",
            "0xa49807205ce4d355092ef5a8a18f56e8913cf4a201fbe287825b095693c21775",
            "0x0000000000000000000000003c5a809e712d30d932b71edb066fa2eedee6ad58",
            "0x0000000000000000000000000c91daef85fc0a5509d18a7fe8a75baf8dca9280"
          ],
          "data": "0x",
          "blockHash": "0xcc4628eea4d96cd6190c87f89fd8fc555bcc2be879d6553f4e9313d1419a2ea9",
          "blockNumber": "0x4868e63",
          "transactionHash": "0x70370b15a11c5e1887742d59d1207050bdaa4b92a90217f5cfc406617e852d37",
          "transactionIndex": "0x0",
          "logIndex": "0x1",
          "removed": false
        },
        {
          "address": "0x487f489b905b9a58520e97f1274c189f94d02be7",
          "topics": [
            "0xbd79b86ffe0ab8e8776151514217cd7cacd52c909f66475c3af44e129f0b00ff",
            "0x52eafc11f6f81f86878bffd31109a0d92f37506527754f00788853ff9f63b130",
            "0x0000000000000000000000000000000000000000000000000000000000000000",
            "0xa49807205ce4d355092ef5a8a18f56e8913cf4a201fbe287825b095693c21775"
          ],
          "data": "0x",
          "blockHash": "0xcc4628eea4d96cd6190c87f89fd8fc555bcc2be879d6553f4e9313d1419a2ea9",
          "blockNumber": "0x4868e63",
          "transactionHash": "0x70370b15a11c5e1887742d59d1207050bdaa4b92a90217f5cfc406617e852d37",
          "transactionIndex": "0x0",
          "logIndex": "0x2",
          "removed": false
        },
        {
          "address": "0x487f489b905b9a58520e97f1274c189f94d02be7",
          "topics": [
            "0xbd79b86ffe0ab8e8776151514217cd7cacd52c909f66475c3af44e129f0b00ff",
            "0x9f2df0fed2c77648de5860a4cc508cd0818c85b8b8a1ab4ceeef8d981c8956a6",
            "0x0000000000000000000000000000000000000000000000000000000000000000",
            "0xa49807205ce4d355092ef5a8a18f56e8913cf4a201fbe287825b095693c21775"
          ],
          "data": "0x",
          "blockHash": "0xcc4628eea4d96cd6190c87f89fd8fc555bcc2be879d6553f4e9313d1419a2ea9",
          "blockNumber": "0x4868e63",
          "transactionHash": "0x70370b15a11c5e1887742d59d1207050bdaa4b92a90217f5cfc406617e852d37",
          "transactionIndex": "0x0",
          "logIndex": "0x3",
          "removed": false
        },
        {
          "address": "0x487f489b905b9a58520e97f1274c189f94d02be7",
          "topics": [
            "0x2f8788117e7eff1d82e926ec794901d17c78024a50270940304540a733656f0d",
            "0x52eafc11f6f81f86878bffd31109a0d92f37506527754f00788853ff9f63b130",
            "0x0000000000000000000000003c5a809e712d30d932b71edb066fa2eedee6ad58",
            "0x0000000000000000000000000c91daef85fc0a5509d18a7fe8a75baf8dca9280"
          ],
          "data": "0x",
          "blockHash": "0xcc4628eea4d96cd6190c87f89fd8fc555bcc2be879d6553f4e9313d1419a2ea9",
          "blockNumber": "0x4868e63",
          "transactionHash": "0x70370b15a11c5e1887742d59d1207050bdaa4b92a90217f5cfc406617e852d37",
          "transactionIndex": "0x0",
          "logIndex": "0x4",
          "removed": false
        },
        {
          "address": "0x487f489b905b9a58520e97f1274c189f94d02be7",
          "topics": [
            "0x2f8788117e7eff1d82e926ec794901d17c78024a50270940304540a733656f0d",
            "0x9f2df0fed2c77648de5860a4cc508cd0818c85b8b8a1ab4ceeef8d981c8956a6",
            "0x0000000000000000000000003c5a809e712d30d932b71edb066fa2eedee6ad58",
            "0x0000000000000000000000000c91daef85fc0a5509d18a7fe8a75baf8dca9280"
          ],
          "data": "0x",
          "blockHash": "0xcc4628eea4d96cd6190c87f89fd8fc555bcc2be879d6553f4e9313d1419a2ea9",
          "blockNumber": "0x4868e63",
          "transactionHash": "0x70370b15a11c5e1887742d59d1207050bdaa4b92a90217f5cfc406617e852d37",
          "transactionIndex": "0x0",
          "logIndex": "0x5",
          "removed": false
        },
        {
          "address": "0x487f489b905b9a58520e97f1274c189f94d02be7",
          "topics": [
            "0xc7f505b2f371ae2175ee4913f4499e1f2633a7b5936321eed1cdaeb6115181d2"
          ],
          "data": "0x0000000000000000000000000000000000000000000000000000000000000001",
          "blockHash": "0xcc4628eea4d96cd6190c87f89fd8fc555bcc2be879d6553f4e9313d1419a2ea9",
          "blockNumber": "0x4868e63",
          "transactionHash": "0x70370b15a11c5e1887742d59d1207050bdaa4b92a90217f5cfc406617e852d37",
          "transactionIndex": "0x0",
          "logIndex": "0x6",
          "removed": false
        },
        {
          "address": "0x7658469510727a85ab337efa9904714203a2a7ca",
          "topics": [
            "0x2f8788117e7eff1d82e926ec794901d17c78024a50270940304540a733656f0d",
            "0x0000000000000000000000000000000000000000000000000000000000000000",
            "0x0000000000000000000000003c5a809e712d30d932b71edb066fa2eedee6ad58",
            "0x0000000000000000000000000c91daef85fc0a5509d18a7fe8a75baf8dca9280"
          ],
          "data": "0x",
          "blockHash": "0xcc4628eea4d96cd6190c87f89fd8fc555bcc2be879d6553f4e9313d1419a2ea9",
          "blockNumber": "0x4868e63",
          "transactionHash": "0x70370b15a11c5e1887742d59d1207050bdaa4b92a90217f5cfc406617e852d37",
          "transactionIndex": "0x0",
          "logIndex": "0x7",
          "removed": false
        },
        {
          "address": "0x7658469510727a85ab337efa9904714203a2a7ca",
          "topics": [
            "0x2f8788117e7eff1d82e926ec794901d17c78024a50270940304540a733656f0d",
            "0xa49807205ce4d355092ef5a8a18f56e8913cf4a201fbe287825b095693c21775",
            "0x0000000000000000000000003c5a809e712d30d932b71edb066fa2eedee6ad58",
            "0x0000000000000000000000000c91daef85fc0a5509d18a7fe8a75baf8dca9280"
          ],
          "data": "0x",
          "blockHash": "0xcc4628eea4d96cd6190c87f89fd8fc555bcc2be879d6553f4e9313d1419a2ea9",
          "blockNumber": "0x4868e63",
          "transactionHash": "0x70370b15a11c5e1887742d59d1207050bdaa4b92a90217f5cfc406617e852d37",
          "transactionIndex": "0x0",
          "logIndex": "0x8",
          "removed": false
        },
        {
          "address": "0x7658469510727a85ab337efa9904714203a2a7ca",
          "topics": [
            "0x92db0a73953674106add51d5a298600aa6be001cb944713d43a49fde79554fa4",
            "0x0000000000000000000000008ebe3f72cbbc78bf0802180a72d73cce82f821c2",
            "0x000000000000000000000000487f489b905b9a58520e97f1274c189f94d02be7"
          ],
          "data": "0x0000000000000000000000000000000000000000000000000000000000000033",
          "blockHash": "0xcc4628eea4d96cd6190c87f89fd8fc555bcc2be879d6553f4e9313d1419a2ea9",
          "blockNumber": "0x4868e63",
          "transactionHash": "0x70370b15a11c5e1887742d59d1207050bdaa4b92a90217f5cfc406617e852d37",
          "transactionIndex": "0x0",
          "logIndex": "0x9",
          "removed": false
        },
        {
          "address": "0x7658469510727a85ab337efa9904714203a2a7ca",
          "topics": [
            "0xc7f505b2f371ae2175ee4913f4499e1f2633a7b5936321eed1cdaeb6115181d2"
          ],
          "data": "0x0000000000000000000000000000000000000000000000000000000000000001",
          "blockHash": "0xcc4628eea4d96cd6190c87f89fd8fc555bcc2be879d6553f4e9313d1419a2ea9",
          "blockNumber": "0x4868e63",
          "transactionHash": "0x70370b15a11c5e1887742d59d1207050bdaa4b92a90217f5cfc406617e852d37",
          "transactionIndex": "0x0",
          "logIndex": "0xa",
          "removed": false
        },
        {
          "address": "0xdf9222db36f90047c3f237f1caa902033f97a9f3",
          "topics": [
            "0x2f8788117e7eff1d82e926ec794901d17c78024a50270940304540a733656f0d",
            "0x0000000000000000000000000000000000000000000000000000000000000000",
            "0x0000000000000000000000003c5a809e712d30d932b71edb066fa2eedee6ad58",
            "0x0000000000000000000000000c91daef85fc0a5509d18a7fe8a75baf8dca9280"
          ],
          "data": "0x",
          "blockHash": "0xcc4628eea4d96cd6190c87f89fd8fc555bcc2be879d6553f4e9313d1419a2ea9",
          "blockNumber": "0x4868e63",
          "transactionHash": "0x70370b15a11c5e1887742d59d1207050bdaa4b92a90217f5cfc406617e852d37",
          "transactionIndex": "0x0",
          "logIndex": "0xb",
          "removed": false
        },
        {
          "address": "0xdf9222db36f90047c3f237f1caa902033f97a9f3",
          "topics": [
            "0x2f8788117e7eff1d82e926ec794901d17c78024a50270940304540a733656f0d",
            "0xa49807205ce4d355092ef5a8a18f56e8913cf4a201fbe287825b095693c21775",
            "0x0000000000000000000000003c5a809e712d30d932b71edb066fa2eedee6ad58",
            "0x0000000000000000000000000c91daef85fc0a5509d18a7fe8a75baf8dca9280"
          ],
          "data": "0x",
          "blockHash": "0xcc4628eea4d96cd6190c87f89fd8fc555bcc2be879d6553f4e9313d1419a2ea9",
          "blockNumber": "0x4868e63",
          "transactionHash": "0x70370b15a11c5e1887742d59d1207050bdaa4b92a90217f5cfc406617e852d37",
          "transactionIndex": "0x0",
          "logIndex": "0xc",
          "removed": false
        },
        {
          "address": "0xdf9222db36f90047c3f237f1caa902033f97a9f3",
          "topics": [
            "0x617372bc781d277bb042ad82810bc196d332ed8f1b8f4a12eac1155c4288e5d5"
          ],
          "data": "0x0000000000000000000000008ebe3f72cbbc78bf0802180a72d73cce82f821c20000000000000000000000007658469510727a85ab337efa9904714203a2a7ca000000000000000000000000487f489b905b9a58520e97f1274c189f94d02be70000000000000000000000000000000000000000000000000000000000000033",
          "blockHash": "0xcc4628eea4d96cd6190c87f89fd8fc555bcc2be879d6553f4e9313d1419a2ea9",
          "blockNumber": "0x4868e63",
          "transactionHash": "0x70370b15a11c5e1887742d59d1207050bdaa4b92a90217f5cfc406617e852d37",
          "transactionIndex": "0x0",
          "logIndex": "0xd",
          "removed": false
        },
        {
          "address": "0xdf9222db36f90047c3f237f1caa902033f97a9f3",
          "topics": [
            "0xc7f505b2f371ae2175ee4913f4499e1f2633a7b5936321eed1cdaeb6115181d2"
          ],
          "data": "0x0000000000000000000000000000000000000000000000000000000000000001",
          "blockHash": "0xcc4628eea4d96cd6190c87f89fd8fc555bcc2be879d6553f4e9313d1419a2ea9",
          "blockNumber": "0x4868e63",
          "transactionHash": "0x70370b15a11c5e1887742d59d1207050bdaa4b92a90217f5cfc406617e852d37",
          "transactionIndex": "0x0",
          "logIndex": "0xe",
          "removed": false
        },
        {
          "address": "0x19add1c01a66b9fa648bd9366eedab775890151a",
          "topics": [
            "0x2f8788117e7eff1d82e926ec794901d17c78024a50270940304540a733656f0d",
            "0x0000000000000000000000000000000000000000000000000000000000000000",
            "0x0000000000000000000000000c91daef85fc0a5509d18a7fe8a75baf8dca9280",
            "0x0000000000000000000000000c91daef85fc0a5509d18a7fe8a75baf8dca9280"
          ],
          "data": "0x",
          "blockHash": "0xcc4628eea4d96cd6190c87f89fd8fc555bcc2be879d6553f4e9313d1419a2ea9",
          "blockNumber": "0x4868e63",
          "transactionHash": "0x70370b15a11c5e1887742d59d1207050bdaa4b92a90217f5cfc406617e852d37",
          "transactionIndex": "0x0",
          "logIndex": "0xf",
          "removed": false
        },
        {
          "address": "0x19add1c01a66b9fa648bd9366eedab775890151a",
          "topics": [
            "0x2f8788117e7eff1d82e926ec794901d17c78024a50270940304540a733656f0d",
            "0xa49807205ce4d355092ef5a8a18f56e8913cf4a201fbe287825b095693c21775",
            "0x0000000000000000000000000c91daef85fc0a5509d18a7fe8a75baf8dca9280",
            "0x0000000000000000000000000c91daef85fc0a5509d18a7fe8a75baf8dca9280"
          ],
          "data": "0x",
          "blockHash": "0xcc4628eea4d96cd6190c87f89fd8fc555bcc2be879d6553f4e9313d1419a2ea9",
          "blockNumber": "0x4868e63",
          "transactionHash": "0x70370b15a11c5e1887742d59d1207050bdaa4b92a90217f5cfc406617e852d37",
          "transactionIndex": "0x0",
          "logIndex": "0x10",
          "removed": false
        },
        {
          "address": "0x19add1c01a66b9fa648bd9366eedab775890151a",
          "topics": [
            "0xcdc2d2b3b6cc9e6e337953a6cf42faf9c816483b1c85276caa621c5fbbbb75a9",
            "0x000000000000000000000000df40382d86fc26ac8938cd23f7d4ba58bc32c608",
            "0x000000000000000000000000487f489b905b9a58520e97f1274c189f94d02be7"
          ],
          "data": "0x0000000000000000000000000000000000000000000000000000000000000033000000000000000000000000000000000000000000000000000000000000003c",
          "blockHash": "0xcc4628eea4d96cd6190c87f89fd8fc555bcc2be879d6553f4e9313d1419a2ea9",
          "blockNumber": "0x4868e63",
          "transactionHash": "0x70370b15a11c5e1887742d59d1207050bdaa4b92a90217f5cfc406617e852d37",
          "transactionIndex": "0x0",
          "logIndex": "0x11",
          "removed": false
        },
        {
          "address": "0x19add1c01a66b9fa648bd9366eedab775890151a",
          "topics": [
            "0xc7f505b2f371ae2175ee4913f4499e1f2633a7b5936321eed1cdaeb6115181d2"
          ],
          "data": "0x0000000000000000000000000000000000000000000000000000000000000001",
          "blockHash": "0xcc4628eea4d96cd6190c87f89fd8fc555bcc2be879d6553f4e9313d1419a2ea9",
          "blockNumber": "0x4868e63",
          "transactionHash": "0x70370b15a11c5e1887742d59d1207050bdaa4b92a90217f5cfc406617e852d37",
          "transactionIndex": "0x0",
          "logIndex": "0x12",
          "removed": false
        },
        {
          "address": "0x487f489b905b9a58520e97f1274c189f94d02be7",
          "topics": [
            "0xddf252ad1be2c89b69c2b068fc378daa952ba7f163c4a11628f55a4df523b3ef",
            "0x0000000000000000000000000000000000000000000000000000000000000000",
            "0x0000000000000000000000007658469510727a85ab337efa9904714203a2a7ca"
          ],
          "data": "0x0000000000000000000000000000000000000000000000056bc75e2d63100000",
          "blockHash": "0xcc4628eea4d96cd6190c87f89fd8fc555bcc2be879d6553f4e9313d1419a2ea9",
          "blockNumber": "0x4868e63",
          "transactionHash": "0x70370b15a11c5e1887742d59d1207050bdaa4b92a90217f5cfc406617e852d37",
          "transactionIndex": "0x0",
          "logIndex": "0x13",
          "removed": false
        },
        {
          "address": "0x487f489b905b9a58520e97f1274c189f94d02be7",
          "topics": [
            "0xc5385fef3b6e95d3da3deed556a254d4da51c23361253e0330fbaaed95153de2",
            "0x0000000000000000000000007658469510727a85ab337efa9904714203a2a7ca",
            "0x000000000000000000000000df9222db36f90047c3f237f1caa902033f97a9f3",
            "0x00000000000000000000000019add1c01a66b9fa648bd9366eedab775890151a"
          ],
          "data": "0x0000000000000000000000000000000000000000000000000000000000000033",
          "blockHash": "0xcc4628eea4d96cd6190c87f89fd8fc555bcc2be879d6553f4e9313d1419a2ea9",
          "blockNumber": "0x4868e63",
          "transactionHash": "0x70370b15a11c5e1887742d59d1207050bdaa4b92a90217f5cfc406617e852d37",
          "transactionIndex": "0x0",
          "logIndex": "0x14",
          "removed": false
        },
        {
          "address": "0x7658469510727a85ab337efa9904714203a2a7ca",
          "topics": [
            "0xd9bfccba038d31c4ed4ab83be71ef39789177b7faf9c48ed6a806126e189f32d",
            "0x0000000000000000000000008ebe3f72cbbc78bf0802180a72d73cce82f821c2",
            "0x000000000000000000000000487f489b905b9a58520e97f1274c189f94d02be7"
          ],
          "data": "0x0000000000000000000000000000000000000000000000000000000000000033",
          "blockHash": "0xcc4628eea4d96cd6190c87f89fd8fc555bcc2be879d6553f4e9313d1419a2ea9",
          "blockNumber": "0x4868e63",
          "transactionHash": "0x70370b15a11c5e1887742d59d1207050bdaa4b92a90217f5cfc406617e852d37",
          "transactionIndex": "0x0",
          "logIndex": "0x15",
          "removed": false
        },
        {
          "address": "0xdf9222db36f90047c3f237f1caa902033f97a9f3",
          "topics": [
            "0xc5385fef3b6e95d3da3deed556a254d4da51c23361253e0330fbaaed95153de2",
            "0x0000000000000000000000008ebe3f72cbbc78bf0802180a72d73cce82f821c2",
            "0x0000000000000000000000007658469510727a85ab337efa9904714203a2a7ca",
            "0x000000000000000000000000487f489b905b9a58520e97f1274c189f94d02be7"
          ],
          "data": "0x0000000000000000000000000000000000000000000000000000000000000033",
          "blockHash": "0xcc4628eea4d96cd6190c87f89fd8fc555bcc2be879d6553f4e9313d1419a2ea9",
          "blockNumber": "0x4868e63",
          "transactionHash": "0x70370b15a11c5e1887742d59d1207050bdaa4b92a90217f5cfc406617e852d37",
          "transactionIndex": "0x0",
          "logIndex": "0x16",
          "removed": false
        },
        {
          "address": "0x487f489b905b9a58520e97f1274c189f94d02be7",
          "topics": [
            "0x773997567943f58cc9bc2bc0aea7ef4931f060052516d8724ac3b8ed933f057e",
            "0x0000000000000000000000008ebe3f72cbbc78bf0802180a72d73cce82f821c2"
          ],
          "data": "0x0000000000000000000000000000000000000000000000000000000000000033",
          "blockHash": "0xcc4628eea4d96cd6190c87f89fd8fc555bcc2be879d6553f4e9313d1419a2ea9",
          "blockNumber": "0x4868e63",
          "transactionHash": "0x70370b15a11c5e1887742d59d1207050bdaa4b92a90217f5cfc406617e852d37",
          "transactionIndex": "0x0",
          "logIndex": "0x17",
          "removed": false
        },
        {
          "address": "0x887959ac8c7f85446d567635709705f62f627460",
          "topics": [
            "0x718b255a84139aecfbab57813fc3e5b5fc2c779128d7038e9d380e02bc0e2b29",
            "0x0000000000000000000000000000000000000000000000000000000000000001",
            "0x0000000000000000000000000000000000000000000000000000000000000001",
            "0x000000000000000000000000487f489b905b9a58520e97f1274c189f94d02be7"
          ],
          "data": "0x",
          "blockHash": "0xcc4628eea4d96cd6190c87f89fd8fc555bcc2be879d6553f4e9313d1419a2ea9",
          "blockNumber": "0x4868e63",
          "transactionHash": "0x70370b15a11c5e1887742d59d1207050bdaa4b92a90217f5cfc406617e852d37",
          "transactionIndex": "0x0",
          "logIndex": "0x18",
          "removed": false
        },
        {
          "address": "0x0c91daef85fc0a5509d18a7fe8a75baf8dca9280",
          "topics": [
            "0x4ee224805c8c13b244578fdf5cad26e3f7bd729a9352464176b17e9b1dedba2b",
            "0x0000000000000000000000000000000000000000000000000000000000000001",
            "0x000000000000000000000000487f489b905b9a58520e97f1274c189f94d02be7",
            "0x0000000000000000000000007658469510727a85ab337efa9904714203a2a7ca"
          ],
          "data": "0x000000000000000000000000df9222db36f90047c3f237f1caa902033f97a9f300000000000000000000000019add1c01a66b9fa648bd9366eedab775890151a31000000000000000000000000000000000000000000000000000000000000000000000000000000000000000000000000000000000000000000000000000080000000000000000000000000000000000000000000000000000000000000000647656d696e690000000000000000000000000000000000000000000000000000",
          "blockHash": "0xcc4628eea4d96cd6190c87f89fd8fc555bcc2be879d6553f4e9313d1419a2ea9",
          "blockNumber": "0x4868e63",
          "transactionHash": "0x70370b15a11c5e1887742d59d1207050bdaa4b92a90217f5cfc406617e852d37",
          "transactionIndex": "0x0",
          "logIndex": "0x19",
          "removed": false
        }
      ],
      "logsBloom": "0x200000040000001008001000000000000800000008000000090000000000000080000200000000001080000000040040080000000000000000100000000408000000000000001000040000080000000040000000a0040402000000100000000000000004020080420000080040001820040000000000100800000010001000010000000000000204000800000000004000000020000080000000000001000000000000000000004000000220020000000014100000000120001000000000000000000002000004000000000000000000401000002014014100000080000060010000000004080004080000000000000500042400400000000000080000001000",
      "type": "0x2",
      "transactionHash": "0x70370b15a11c5e1887742d59d1207050bdaa4b92a90217f5cfc406617e852d37",
      "transactionIndex": "0x0",
      "blockHash": "0xcc4628eea4d96cd6190c87f89fd8fc555bcc2be879d6553f4e9313d1419a2ea9",
      "blockNumber": "0x4868e63",
      "gasUsed": "0x1d744b",
      "effectiveGasPrice": "0x2e90edd01",
      "from": "0x3c5a809e712d30d932b71edb066fa2eedee6ad58",
      "to": "0x0c91daef85fc0a5509d18a7fe8a75baf8dca9280",
      "contractAddress": null
    }
  ],
  "libraries": [],
  "pending": [],
  "returns": {},
  "timestamp": 1749019017,
  "chain": 51,
  "commit": "2fd1f9e"
}