{
  "transactions": [
    {
      "hash": "0xa3dcbb9ee0ee00961f3fa161a5e352eb23d48221925302482c46b5db585f2e4d",
      "transactionType": "CALL",
      "contractName": null,
      "contractAddress": "0x0c91daef85fc0a5509d18a7fe8a75baf8dca9280",
      "function": "registerCompany((string,string,uint8))",
      "arguments": [
        "(Sample Company, Sample Jurisdiction, 0)"
      ],
      "transaction": {
        "from": "0x3c5a809e712d30d932b71edb066fa2eedee6ad58",
        "to": "0x0c91daef85fc0a5509d18a7fe8a75baf8dca9280",
        "gas": "0x50e87",
        "value": "0x0",
        "input": "0x72ea08b00000000000000000000000000000000000000000000000000000000000000020000000000000000000000000000000000000000000000000000000000000006000000000000000000000000000000000000000000000000000000000000000a00000000000000000000000000000000000000000000000000000000000000000000000000000000000000000000000000000000000000000000000000000000e53616d706c6520436f6d70616e79000000000000000000000000000000000000000000000000000000000000000000000000000000000000000000000000001353616d706c65204a7572697364696374696f6e00000000000000000000000000",
        "nonce": "0x49",
        "chainId": "0x33"
      },
      "additionalContracts": [],
      "isFixedGasLimit": false
    }
  ],
  "receipts": [
    {
      "status": "0x1",
      "cumulativeGasUsed": "0x3b1c0",
      "logs": [
        {
          "address": "0x887959ac8c7f85446d567635709705f62f627460",
          "topics": [
            "0x03cd167b04980b915d7fe24c6a5a08be27729b35da3f72c49aa30fbcd5aa6ee0",
            "0x0000000000000000000000000000000000000000000000000000000000000001",
            "0x0000000000000000000000003c5a809e712d30d932b71edb066fa2eedee6ad58"
          ],
          "data": "0x0000000000000000000000000000000000000000000000000000000000000060000000000000000000000000000000000000000000000000000000000000000000000000000000000000000000000000000000000000000000000000000000a0000000000000000000000000000000000000000000000000000000000000000e53616d706c6520436f6d70616e79000000000000000000000000000000000000000000000000000000000000000000000000000000000000000000000000001353616d706c65204a7572697364696374696f6e00000000000000000000000000",
          "blockHash": "0xf6d065f8266cbea9eb64a1c30f3f618a4620f6199d2ddb6ca120600fd07566e3",
          "blockNumber": "0x4868d7c",
          "transactionHash": "0xa3dcbb9ee0ee00961f3fa161a5e352eb23d48221925302482c46b5db585f2e4d",
          "transactionIndex": "0x0",
          "logIndex": "0x0",
          "removed": false
        },
        {
          "address": "0x0c91daef85fc0a5509d18a7fe8a75baf8dca9280",
          "topics": [
            "0xefa980f807c93e7f0adb08a55b41b92038bae1418c84ff23933499d67e138559",
            "0x0000000000000000000000000000000000000000000000000000000000000001",
            "0x0000000000000000000000003c5a809e712d30d932b71edb066fa2eedee6ad58"
          ],
          "data": "0x000000000000000000000000000000000000000000000000000000000000006000000000000000000000000000000000000000000000000000000000000000a00000000000000000000000000000000000000000000000000000000000000000000000000000000000000000000000000000000000000000000000000000000e53616d706c6520436f6d70616e79000000000000000000000000000000000000000000000000000000000000000000000000000000000000000000000000001353616d706c65204a7572697364696374696f6e00000000000000000000000000",
          "blockHash": "0xf6d065f8266cbea9eb64a1c30f3f618a4620f6199d2ddb6ca120600fd07566e3",
          "blockNumber": "0x4868d7c",
          "transactionHash": "0xa3dcbb9ee0ee00961f3fa161a5e352eb23d48221925302482c46b5db585f2e4d",
          "transactionIndex": "0x0",
          "logIndex": "0x1",
          "removed": false
        }
      ],
      "logsBloom": "0x00000000000000000000000000000000000000000000000000000000000000008000020000000000000000000000000000000000100000000010000000040000000000000000000000000000000000000000000000040000000000000000000000000004020000000000000040000000000000000000000000000000000000000000000000000000000000000000000000000000000000000000000001000000000000000000000000000800000000000000000000000020000000000000000000000006000000000000000000000000000000000000080000000000000042000000000000000000000000000000000000000000000000000000080000000000",
      "type": "0x2",
      "transactionHash": "0xa3dcbb9ee0ee00961f3fa161a5e352eb23d48221925302482c46b5db585f2e4d",
      "transactionIndex": "0x0",
      "blockHash": "0xf6d065f8266cbea9eb64a1c30f3f618a4620f6199d2ddb6ca120600fd07566e3",
      "blockNumber": "0x4868d7c",
      "gasUsed": "0x3b1c0",
      "effectiveGasPrice": "0x2e90edd01",
      "from": "0x3c5a809e712d30d932b71edb066fa2eedee6ad58",
      "to": "0x0c91daef85fc0a5509d18a7fe8a75baf8dca9280",
      "contractAddress": null
    }
  ],
  "libraries": [],
  "pending": [],
  "returns": {},
  "timestamp": 1749018531,
  "chain": 51,
  "commit": "2fd1f9e"
}