{
  "transactions": [
    {
      "hash": "0x77862dc2ccf7a587b6dd672e48661f9395e8f5e70ff6220ca1567d8d5f57764a",
      "transactionType": "CALL",
      "contractName": null,
      "contractAddress": "0x50e61c1b9fd2757f233872fddb039c073c525107",
      "function": "registerCompany((string,string,uint8))",
      "arguments": [
        "(Sample Company, Sample Jurisdiction, 0)"
      ],
      "transaction": {
        "from": "0xe24c9c12373741e9b6beed86d1a067fc5742dc07",
        "to": "0x50e61c1b9fd2757f233872fddb039c073c525107",
        "gas": "0x456ae",
        "value": "0x0",
        "input": "0x72ea08b00000000000000000000000000000000000000000000000000000000000000020000000000000000000000000000000000000000000000000000000000000006000000000000000000000000000000000000000000000000000000000000000a00000000000000000000000000000000000000000000000000000000000000000000000000000000000000000000000000000000000000000000000000000000e53616d706c6520436f6d70616e79000000000000000000000000000000000000000000000000000000000000000000000000000000000000000000000000001353616d706c65204a7572697364696374696f6e00000000000000000000000000",
        "nonce": "0x0",
        "chainId": "0x33"
      },
      "additionalContracts": [],
      "isFixedGasLimit": false
    }
  ],
  "receipts": [
    {
      "status": "0x1",
      "cumulativeGasUsed": "0x32ca6",
      "logs": [
        {
          "address": "0x5d171e56da5c0299bb44fbbbd657cbe8b0644987",
          "topics": [
            "0x03cd167b04980b915d7fe24c6a5a08be27729b35da3f72c49aa30fbcd5aa6ee0",
            "0x0000000000000000000000000000000000000000000000000000000000000003",
            "0x000000000000000000000000e24c9c12373741e9b6beed86d1a067fc5742dc07"
          ],
          "data": "0x0000000000000000000000000000000000000000000000000000000000000060000000000000000000000000000000000000000000000000000000000000000000000000000000000000000000000000000000000000000000000000000000a0000000000000000000000000000000000000000000000000000000000000000e53616d706c6520436f6d70616e79000000000000000000000000000000000000000000000000000000000000000000000000000000000000000000000000001353616d706c65204a7572697364696374696f6e00000000000000000000000000",
          "blockHash": "0xefa9fc439a0de758fe33493cdd6b0659e1452c0d6b1931eef0e34d004bda4610",
          "blockNumber": "0x48619c4",
          "transactionHash": "0x77862dc2ccf7a587b6dd672e48661f9395e8f5e70ff6220ca1567d8d5f57764a",
          "transactionIndex": "0x0",
          "logIndex": "0x0",
          "removed": false
        },
        {
          "address": "0x50e61c1b9fd2757f233872fddb039c073c525107",
          "topics": [
            "0xefa980f807c93e7f0adb08a55b41b92038bae1418c84ff23933499d67e138559",
            "0x0000000000000000000000000000000000000000000000000000000000000003",
            "0x000000000000000000000000e24c9c12373741e9b6beed86d1a067fc5742dc07"
          ],
          "data": "0x000000000000000000000000000000000000000000000000000000000000006000000000000000000000000000000000000000000000000000000000000000a00000000000000000000000000000000000000000000000000000000000000000000000000000000000000000000000000000000000000000000000000000000e53616d706c6520436f6d70616e79000000000000000000000000000000000000000000000000000000000000000000000000000000000000000000000000001353616d706c65204a7572697364696374696f6e00000000000000000000000000",
          "blockHash": "0xefa9fc439a0de758fe33493cdd6b0659e1452c0d6b1931eef0e34d004bda4610",
          "blockNumber": "0x48619c4",
          "transactionHash": "0x77862dc2ccf7a587b6dd672e48661f9395e8f5e70ff6220ca1567d8d5f57764a",
          "transactionIndex": "0x0",
          "logIndex": "0x1",
          "removed": false
        }
      ],
      "logsBloom": "0x00000000000000000000000000000000000000000000000000000000000100000000000000000000000000000000000000000000120000000000000000000000000000000000000000000000000000000000001000000000000000000000000000000000000000000000000080000000000000000000100000000000000000000000000008000008000000000000000000000000000000000000000001000000000000000010000000000800000000000000000000800000000000002000400000000004000000000000000800000000000000000000080000000000000002000000000000000000000000000000000000000000000000000000000000000000",
      "type": "0x2",
      "transactionHash": "0x77862dc2ccf7a587b6dd672e48661f9395e8f5e70ff6220ca1567d8d5f57764a",
      "transactionIndex": "0x0",
      "blockHash": "0xefa9fc439a0de758fe33493cdd6b0659e1452c0d6b1931eef0e34d004bda4610",
      "blockNumber": "0x48619c4",
      "gasUsed": "0x32ca6",
      "effectiveGasPrice": "0x2e90edd01",
      "from": "0xe24c9c12373741e9b6beed86d1a067fc5742dc07",
      "to": "0x50e61c1b9fd2757f233872fddb039c073c525107",
      "contractAddress": null
    }
  ],
  "libraries": [],
  "pending": [],
  "returns": {},
  "timestamp": 1748957863,
  "chain": 51,
  "commit": "2fd1f9e"
}