{
  "transactions": [
    {
      "hash": "0x81ad66de15c2b15d76eca720d656d94077e7f0ab1b193b7c100768d2370a736d",
      "transactionType": "CALL",
      "contractName": null,
      "contractAddress": "0x50e61c1b9fd2757f233872fddb039c073c525107",
      "function": "createProject(uint256,(string,bytes32,uint16,uint256,uint256,uint256,bytes32,uint256,uint256,uint256,uint256,uint256,uint256,bytes32,bytes32,address,address))",
      "arguments": [
        "1",
        "(Gemini, 0x436f6d6d65726369616c00000000000000000000000000000000000000000000, 51, 10000000000000000000, 80000000000000000000, 100000000000000000000, 0x3100000000000000000000000000000000000000000000000000000000000000, 3, 100000000000000000000, 86400, 10, 10, 100000000000000000000, 0x3100000000000000000000000000000000000000000000000000000000000000, 0x3100000000000000000000000000000000000000000000000000000000000000, 0x3c5a809e712D30D932b71EdB066FA2EEDEE6Ad58, 0x50e61c1b9FD2757F233872FdDb039C073C525107)"
      ],
      "transaction": {
        "from": "0x3c5a809e712d30d932b71edb066fa2eedee6ad58",
        "to": "0x50e61c1b9fd2757f233872fddb039c073c525107",
        "gas": "0x288997",
        "value": "0x0",
        "input": "0x6056ec27000000000000000000000000000000000000000000000000000000000000000100000000000000000000000000000000000000000000000000000000000000400000000000000000000000000000000000000000000000000000000000000220436f6d6d65726369616c0000000000000000000000000000000000000000000000000000000000000000000000000000000000000000000000000000000000330000000000000000000000000000000000000000000000008ac7230489e80000000000000000000000000000000000000000000000000004563918244f4000000000000000000000000000000000000000000000000000056bc75e2d63100000310000000000000000000000000000000000000000000000000000000000000000000000000000000000000000000000000000000000000000000000000000030000000000000000000000000000000000000000000000056bc75e2d631000000000000000000000000000000000000000000000000000000000000000015180000000000000000000000000000000000000000000000000000000000000000a000000000000000000000000000000000000000000000000000000000000000a0000000000000000000000000000000000000000000000056bc75e2d63100000310000000000000000000000000000000000000000000000000000000000000031000000000000000000000000000000000000000000000000000000000000000000000000000000000000003c5a809e712d30d932b71edb066fa2eedee6ad5800000000000000000000000050e61c1b9fd2757f233872fddb039c073c525107000000000000000000000000000000000000000000000000000000000000000647656d696e690000000000000000000000000000000000000000000000000000",
        "nonce": "0x2d",
        "chainId": "0x33"
      },
      "additionalContracts": [
        {
          "transactionType": "CREATE",
          "address": "0xf132463a91c741698fee42cd69b87b40ec48f7f1",
          "initCode": "0x3d602d80600a3d3981f3363d3d373d3d3d363d7319150d6546f842d339d32b6d6314df758dd6cf295af43d82803e903d91602b57fd5bf3"
        },
        {
          "transactionType": "CREATE",
          "address": "0x4d577071eb0276fe57beaf80cb77a72f2a7c05cd",
          "initCode": "0x3d602d80600a3d3981f3363d3d373d3d3d363d7319d41f41d9bf69d5366ce818d68056aa6b45180f5af43d82803e903d91602b57fd5bf3"
        },
        {
          "transactionType": "CREATE",
          "address": "0x5b348d3252a1c0a50eb387d6abb417a2b8b2914d",
          "initCode": "0x3d602d80600a3d3981f3363d3d373d3d3d363d7382cd090172afb56d220bd94f71e2c29b83ac2cd85af43d82803e903d91602b57fd5bf3"
        },
        {
          "transactionType": "CREATE",
          "address": "0x2dc574d37395958d93e9f52998f057db49d81f44",
          "initCode": "0x3d602d80600a3d3981f3363d3d373d3d3d363d734c3a7f831b6d16d62ba498c1dbc0152c7fd92e7a5af43d82803e903d91602b57fd5bf3"
        }
      ],
      "isFixedGasLimit": false
    }
  ],
  "receipts": [
    {
      "status": "0x1",
      "cumulativeGasUsed": "0x1d6f54",
      "logs": [
        {
          "address": "0xf132463a91c741698fee42cd69b87b40ec48f7f1",
          "topics": [
            "0x2f8788117e7eff1d82e926ec794901d17c78024a50270940304540a733656f0d",
            "0x0000000000000000000000000000000000000000000000000000000000000000",
            "0x0000000000000000000000003c5a809e712d30d932b71edb066fa2eedee6ad58",
            "0x00000000000000000000000050e61c1b9fd2757f233872fddb039c073c525107"
          ],
          "data": "0x",
          "blockHash": "0xd14dc8f77c2ba833c232c33e9465aa075518a863cb97a53ed4ad660af091fd5a",
          "blockNumber": "0x483a83c",
          "transactionHash": "0x81ad66de15c2b15d76eca720d656d94077e7f0ab1b193b7c100768d2370a736d",
          "transactionIndex": "0x0",
          "logIndex": "0x0",
          "removed": false
        },
        {
          "address": "0xf132463a91c741698fee42cd69b87b40ec48f7f1",
          "topics": [
            "0x2f8788117e7eff1d82e926ec794901d17c78024a50270940304540a733656f0d",
            "0xa49807205ce4d355092ef5a8a18f56e8913cf4a201fbe287825b095693c21775",
            "0x0000000000000000000000003c5a809e712d30d932b71edb066fa2eedee6ad58",
            "0x00000000000000000000000050e61c1b9fd2757f233872fddb039c073c525107"
          ],
          "data": "0x",
          "blockHash": "0xd14dc8f77c2ba833c232c33e9465aa075518a863cb97a53ed4ad660af091fd5a",
          "blockNumber": "0x483a83c",
          "transactionHash": "0x81ad66de15c2b15d76eca720d656d94077e7f0ab1b193b7c100768d2370a736d",
          "transactionIndex": "0x0",
          "logIndex": "0x1",
          "removed": false
        },
        {
          "address": "0xf132463a91c741698fee42cd69b87b40ec48f7f1",
          "topics": [
            "0xbd79b86ffe0ab8e8776151514217cd7cacd52c909f66475c3af44e129f0b00ff",
            "0x52eafc11f6f81f86878bffd31109a0d92f37506527754f00788853ff9f63b130",
            "0x0000000000000000000000000000000000000000000000000000000000000000",
            "0xa49807205ce4d355092ef5a8a18f56e8913cf4a201fbe287825b095693c21775"
          ],
          "data": "0x",
          "blockHash": "0xd14dc8f77c2ba833c232c33e9465aa075518a863cb97a53ed4ad660af091fd5a",
          "blockNumber": "0x483a83c",
          "transactionHash": "0x81ad66de15c2b15d76eca720d656d94077e7f0ab1b193b7c100768d2370a736d",
          "transactionIndex": "0x0",
          "logIndex": "0x2",
          "removed": false
        },
        {
          "address": "0xf132463a91c741698fee42cd69b87b40ec48f7f1",
          "topics": [
            "0xbd79b86ffe0ab8e8776151514217cd7cacd52c909f66475c3af44e129f0b00ff",
            "0x9f2df0fed2c77648de5860a4cc508cd0818c85b8b8a1ab4ceeef8d981c8956a6",
            "0x0000000000000000000000000000000000000000000000000000000000000000",
            "0xa49807205ce4d355092ef5a8a18f56e8913cf4a201fbe287825b095693c21775"
          ],
          "data": "0x",
          "blockHash": "0xd14dc8f77c2ba833c232c33e9465aa075518a863cb97a53ed4ad660af091fd5a",
          "blockNumber": "0x483a83c",
          "transactionHash": "0x81ad66de15c2b15d76eca720d656d94077e7f0ab1b193b7c100768d2370a736d",
          "transactionIndex": "0x0",
          "logIndex": "0x3",
          "removed": false
        },
        {
          "address": "0xf132463a91c741698fee42cd69b87b40ec48f7f1",
          "topics": [
            "0x2f8788117e7eff1d82e926ec794901d17c78024a50270940304540a733656f0d",
            "0x52eafc11f6f81f86878bffd31109a0d92f37506527754f00788853ff9f63b130",
            "0x0000000000000000000000003c5a809e712d30d932b71edb066fa2eedee6ad58",
            "0x00000000000000000000000050e61c1b9fd2757f233872fddb039c073c525107"
          ],
          "data": "0x",
          "blockHash": "0xd14dc8f77c2ba833c232c33e9465aa075518a863cb97a53ed4ad660af091fd5a",
          "blockNumber": "0x483a83c",
          "transactionHash": "0x81ad66de15c2b15d76eca720d656d94077e7f0ab1b193b7c100768d2370a736d",
          "transactionIndex": "0x0",
          "logIndex": "0x4",
          "removed": false
        },
        {
          "address": "0xf132463a91c741698fee42cd69b87b40ec48f7f1",
          "topics": [
            "0x2f8788117e7eff1d82e926ec794901d17c78024a50270940304540a733656f0d",
            "0x9f2df0fed2c77648de5860a4cc508cd0818c85b8b8a1ab4ceeef8d981c8956a6",
            "0x0000000000000000000000003c5a809e712d30d932b71edb066fa2eedee6ad58",
            "0x00000000000000000000000050e61c1b9fd2757f233872fddb039c073c525107"
          ],
          "data": "0x",
          "blockHash": "0xd14dc8f77c2ba833c232c33e9465aa075518a863cb97a53ed4ad660af091fd5a",
          "blockNumber": "0x483a83c",
          "transactionHash": "0x81ad66de15c2b15d76eca720d656d94077e7f0ab1b193b7c100768d2370a736d",
          "transactionIndex": "0x0",
          "logIndex": "0x5",
          "removed": false
        },
        {
          "address": "0xf132463a91c741698fee42cd69b87b40ec48f7f1",
          "topics": [
            "0xc7f505b2f371ae2175ee4913f4499e1f2633a7b5936321eed1cdaeb6115181d2"
          ],
          "data": "0x0000000000000000000000000000000000000000000000000000000000000001",
          "blockHash": "0xd14dc8f77c2ba833c232c33e9465aa075518a863cb97a53ed4ad660af091fd5a",
          "blockNumber": "0x483a83c",
          "transactionHash": "0x81ad66de15c2b15d76eca720d656d94077e7f0ab1b193b7c100768d2370a736d",
          "transactionIndex": "0x0",
          "logIndex": "0x6",
          "removed": false
        },
        {
          "address": "0x4d577071eb0276fe57beaf80cb77a72f2a7c05cd",
          "topics": [
            "0x2f8788117e7eff1d82e926ec794901d17c78024a50270940304540a733656f0d",
            "0x0000000000000000000000000000000000000000000000000000000000000000",
            "0x0000000000000000000000003c5a809e712d30d932b71edb066fa2eedee6ad58",
            "0x00000000000000000000000050e61c1b9fd2757f233872fddb039c073c525107"
          ],
          "data": "0x",
          "blockHash": "0xd14dc8f77c2ba833c232c33e9465aa075518a863cb97a53ed4ad660af091fd5a",
          "blockNumber": "0x483a83c",
          "transactionHash": "0x81ad66de15c2b15d76eca720d656d94077e7f0ab1b193b7c100768d2370a736d",
          "transactionIndex": "0x0",
          "logIndex": "0x7",
          "removed": false
        },
        {
          "address": "0x4d577071eb0276fe57beaf80cb77a72f2a7c05cd",
          "topics": [
            "0x2f8788117e7eff1d82e926ec794901d17c78024a50270940304540a733656f0d",
            "0xa49807205ce4d355092ef5a8a18f56e8913cf4a201fbe287825b095693c21775",
            "0x0000000000000000000000003c5a809e712d30d932b71edb066fa2eedee6ad58",
            "0x00000000000000000000000050e61c1b9fd2757f233872fddb039c073c525107"
          ],
          "data": "0x",
          "blockHash": "0xd14dc8f77c2ba833c232c33e9465aa075518a863cb97a53ed4ad660af091fd5a",
          "blockNumber": "0x483a83c",
          "transactionHash": "0x81ad66de15c2b15d76eca720d656d94077e7f0ab1b193b7c100768d2370a736d",
          "transactionIndex": "0x0",
          "logIndex": "0x8",
          "removed": false
        },
        {
          "address": "0x4d577071eb0276fe57beaf80cb77a72f2a7c05cd",
          "topics": [
            "0x92db0a73953674106add51d5a298600aa6be001cb944713d43a49fde79554fa4",
            "0x0000000000000000000000008ebe3f72cbbc78bf0802180a72d73cce82f821c2",
            "0x000000000000000000000000f132463a91c741698fee42cd69b87b40ec48f7f1"
          ],
          "data": "0x0000000000000000000000000000000000000000000000000000000000000033",
          "blockHash": "0xd14dc8f77c2ba833c232c33e9465aa075518a863cb97a53ed4ad660af091fd5a",
          "blockNumber": "0x483a83c",
          "transactionHash": "0x81ad66de15c2b15d76eca720d656d94077e7f0ab1b193b7c100768d2370a736d",
          "transactionIndex": "0x0",
          "logIndex": "0x9",
          "removed": false
        },
        {
          "address": "0x4d577071eb0276fe57beaf80cb77a72f2a7c05cd",
          "topics": [
            "0xc7f505b2f371ae2175ee4913f4499e1f2633a7b5936321eed1cdaeb6115181d2"
          ],
          "data": "0x0000000000000000000000000000000000000000000000000000000000000001",
          "blockHash": "0xd14dc8f77c2ba833c232c33e9465aa075518a863cb97a53ed4ad660af091fd5a",
          "blockNumber": "0x483a83c",
          "transactionHash": "0x81ad66de15c2b15d76eca720d656d94077e7f0ab1b193b7c100768d2370a736d",
          "transactionIndex": "0x0",
          "logIndex": "0xa",
          "removed": false
        },
        {
          "address": "0x5b348d3252a1c0a50eb387d6abb417a2b8b2914d",
          "topics": [
            "0x2f8788117e7eff1d82e926ec794901d17c78024a50270940304540a733656f0d",
            "0x0000000000000000000000000000000000000000000000000000000000000000",
            "0x0000000000000000000000003c5a809e712d30d932b71edb066fa2eedee6ad58",
            "0x00000000000000000000000050e61c1b9fd2757f233872fddb039c073c525107"
          ],
          "data": "0x",
          "blockHash": "0xd14dc8f77c2ba833c232c33e9465aa075518a863cb97a53ed4ad660af091fd5a",
          "blockNumber": "0x483a83c",
          "transactionHash": "0x81ad66de15c2b15d76eca720d656d94077e7f0ab1b193b7c100768d2370a736d",
          "transactionIndex": "0x0",
          "logIndex": "0xb",
          "removed": false
        },
        {
          "address": "0x5b348d3252a1c0a50eb387d6abb417a2b8b2914d",
          "topics": [
            "0x2f8788117e7eff1d82e926ec794901d17c78024a50270940304540a733656f0d",
            "0xa49807205ce4d355092ef5a8a18f56e8913cf4a201fbe287825b095693c21775",
            "0x0000000000000000000000003c5a809e712d30d932b71edb066fa2eedee6ad58",
            "0x00000000000000000000000050e61c1b9fd2757f233872fddb039c073c525107"
          ],
          "data": "0x",
          "blockHash": "0xd14dc8f77c2ba833c232c33e9465aa075518a863cb97a53ed4ad660af091fd5a",
          "blockNumber": "0x483a83c",
          "transactionHash": "0x81ad66de15c2b15d76eca720d656d94077e7f0ab1b193b7c100768d2370a736d",
          "transactionIndex": "0x0",
          "logIndex": "0xc",
          "removed": false
        },
        {
          "address": "0x5b348d3252a1c0a50eb387d6abb417a2b8b2914d",
          "topics": [
            "0x617372bc781d277bb042ad82810bc196d332ed8f1b8f4a12eac1155c4288e5d5"
          ],
          "data": "0x0000000000000000000000008ebe3f72cbbc78bf0802180a72d73cce82f821c20000000000000000000000004d577071eb0276fe57beaf80cb77a72f2a7c05cd000000000000000000000000f132463a91c741698fee42cd69b87b40ec48f7f10000000000000000000000000000000000000000000000000000000000000033",
          "blockHash": "0xd14dc8f77c2ba833c232c33e9465aa075518a863cb97a53ed4ad660af091fd5a",
          "blockNumber": "0x483a83c",
          "transactionHash": "0x81ad66de15c2b15d76eca720d656d94077e7f0ab1b193b7c100768d2370a736d",
          "transactionIndex": "0x0",
          "logIndex": "0xd",
          "removed": false
        },
        {
          "address": "0x5b348d3252a1c0a50eb387d6abb417a2b8b2914d",
          "topics": [
            "0xc7f505b2f371ae2175ee4913f4499e1f2633a7b5936321eed1cdaeb6115181d2"
          ],
          "data": "0x0000000000000000000000000000000000000000000000000000000000000001",
          "blockHash": "0xd14dc8f77c2ba833c232c33e9465aa075518a863cb97a53ed4ad660af091fd5a",
          "blockNumber": "0x483a83c",
          "transactionHash": "0x81ad66de15c2b15d76eca720d656d94077e7f0ab1b193b7c100768d2370a736d",
          "transactionIndex": "0x0",
          "logIndex": "0xe",
          "removed": false
        },
        {
          "address": "0x2dc574d37395958d93e9f52998f057db49d81f44",
          "topics": [
            "0x2f8788117e7eff1d82e926ec794901d17c78024a50270940304540a733656f0d",
            "0x0000000000000000000000000000000000000000000000000000000000000000",
            "0x00000000000000000000000050e61c1b9fd2757f233872fddb039c073c525107",
            "0x00000000000000000000000050e61c1b9fd2757f233872fddb039c073c525107"
          ],
          "data": "0x",
          "blockHash": "0xd14dc8f77c2ba833c232c33e9465aa075518a863cb97a53ed4ad660af091fd5a",
          "blockNumber": "0x483a83c",
          "transactionHash": "0x81ad66de15c2b15d76eca720d656d94077e7f0ab1b193b7c100768d2370a736d",
          "transactionIndex": "0x0",
          "logIndex": "0xf",
          "removed": false
        },
        {
          "address": "0x2dc574d37395958d93e9f52998f057db49d81f44",
          "topics": [
            "0x2f8788117e7eff1d82e926ec794901d17c78024a50270940304540a733656f0d",
            "0xa49807205ce4d355092ef5a8a18f56e8913cf4a201fbe287825b095693c21775",
            "0x00000000000000000000000050e61c1b9fd2757f233872fddb039c073c525107",
            "0x00000000000000000000000050e61c1b9fd2757f233872fddb039c073c525107"
          ],
          "data": "0x",
          "blockHash": "0xd14dc8f77c2ba833c232c33e9465aa075518a863cb97a53ed4ad660af091fd5a",
          "blockNumber": "0x483a83c",
          "transactionHash": "0x81ad66de15c2b15d76eca720d656d94077e7f0ab1b193b7c100768d2370a736d",
          "transactionIndex": "0x0",
          "logIndex": "0x10",
          "removed": false
        },
        {
          "address": "0x2dc574d37395958d93e9f52998f057db49d81f44",
          "topics": [
            "0xcdc2d2b3b6cc9e6e337953a6cf42faf9c816483b1c85276caa621c5fbbbb75a9",
            "0x000000000000000000000000df40382d86fc26ac8938cd23f7d4ba58bc32c608",
            "0x000000000000000000000000f132463a91c741698fee42cd69b87b40ec48f7f1"
          ],
          "data": "0x0000000000000000000000000000000000000000000000000000000000000033000000000000000000000000000000000000000000000000000000000000003c",
          "blockHash": "0xd14dc8f77c2ba833c232c33e9465aa075518a863cb97a53ed4ad660af091fd5a",
          "blockNumber": "0x483a83c",
          "transactionHash": "0x81ad66de15c2b15d76eca720d656d94077e7f0ab1b193b7c100768d2370a736d",
          "transactionIndex": "0x0",
          "logIndex": "0x11",
          "removed": false
        },
        {
          "address": "0x2dc574d37395958d93e9f52998f057db49d81f44",
          "topics": [
            "0xc7f505b2f371ae2175ee4913f4499e1f2633a7b5936321eed1cdaeb6115181d2"
          ],
          "data": "0x0000000000000000000000000000000000000000000000000000000000000001",
          "blockHash": "0xd14dc8f77c2ba833c232c33e9465aa075518a863cb97a53ed4ad660af091fd5a",
          "blockNumber": "0x483a83c",
          "transactionHash": "0x81ad66de15c2b15d76eca720d656d94077e7f0ab1b193b7c100768d2370a736d",
          "transactionIndex": "0x0",
          "logIndex": "0x12",
          "removed": false
        },
        {
          "address": "0xf132463a91c741698fee42cd69b87b40ec48f7f1",
          "topics": [
            "0xddf252ad1be2c89b69c2b068fc378daa952ba7f163c4a11628f55a4df523b3ef",
            "0x0000000000000000000000000000000000000000000000000000000000000000",
            "0x0000000000000000000000004d577071eb0276fe57beaf80cb77a72f2a7c05cd"
          ],
          "data": "0x0000000000000000000000000000000000000000000000056bc75e2d63100000",
          "blockHash": "0xd14dc8f77c2ba833c232c33e9465aa075518a863cb97a53ed4ad660af091fd5a",
          "blockNumber": "0x483a83c",
          "transactionHash": "0x81ad66de15c2b15d76eca720d656d94077e7f0ab1b193b7c100768d2370a736d",
          "transactionIndex": "0x0",
          "logIndex": "0x13",
          "removed": false
        },
        {
          "address": "0xf132463a91c741698fee42cd69b87b40ec48f7f1",
          "topics": [
            "0xc5385fef3b6e95d3da3deed556a254d4da51c23361253e0330fbaaed95153de2",
            "0x0000000000000000000000004d577071eb0276fe57beaf80cb77a72f2a7c05cd",
            "0x0000000000000000000000005b348d3252a1c0a50eb387d6abb417a2b8b2914d",
            "0x0000000000000000000000002dc574d37395958d93e9f52998f057db49d81f44"
          ],
          "data": "0x0000000000000000000000000000000000000000000000000000000000000033",
          "blockHash": "0xd14dc8f77c2ba833c232c33e9465aa075518a863cb97a53ed4ad660af091fd5a",
          "blockNumber": "0x483a83c",
          "transactionHash": "0x81ad66de15c2b15d76eca720d656d94077e7f0ab1b193b7c100768d2370a736d",
          "transactionIndex": "0x0",
          "logIndex": "0x14",
          "removed": false
        },
        {
          "address": "0x4d577071eb0276fe57beaf80cb77a72f2a7c05cd",
          "topics": [
            "0xd9bfccba038d31c4ed4ab83be71ef39789177b7faf9c48ed6a806126e189f32d",
            "0x0000000000000000000000008ebe3f72cbbc78bf0802180a72d73cce82f821c2",
            "0x000000000000000000000000f132463a91c741698fee42cd69b87b40ec48f7f1"
          ],
          "data": "0x0000000000000000000000000000000000000000000000000000000000000033",
          "blockHash": "0xd14dc8f77c2ba833c232c33e9465aa075518a863cb97a53ed4ad660af091fd5a",
          "blockNumber": "0x483a83c",
          "transactionHash": "0x81ad66de15c2b15d76eca720d656d94077e7f0ab1b193b7c100768d2370a736d",
          "transactionIndex": "0x0",
          "logIndex": "0x15",
          "removed": false
        },
        {
          "address": "0x5b348d3252a1c0a50eb387d6abb417a2b8b2914d",
          "topics": [
            "0xc5385fef3b6e95d3da3deed556a254d4da51c23361253e0330fbaaed95153de2",
            "0x0000000000000000000000008ebe3f72cbbc78bf0802180a72d73cce82f821c2",
            "0x0000000000000000000000004d577071eb0276fe57beaf80cb77a72f2a7c05cd",
            "0x000000000000000000000000f132463a91c741698fee42cd69b87b40ec48f7f1"
          ],
          "data": "0x0000000000000000000000000000000000000000000000000000000000000033",
          "blockHash": "0xd14dc8f77c2ba833c232c33e9465aa075518a863cb97a53ed4ad660af091fd5a",
          "blockNumber": "0x483a83c",
          "transactionHash": "0x81ad66de15c2b15d76eca720d656d94077e7f0ab1b193b7c100768d2370a736d",
          "transactionIndex": "0x0",
          "logIndex": "0x16",
          "removed": false
        },
        {
          "address": "0xf132463a91c741698fee42cd69b87b40ec48f7f1",
          "topics": [
            "0x773997567943f58cc9bc2bc0aea7ef4931f060052516d8724ac3b8ed933f057e",
            "0x0000000000000000000000008ebe3f72cbbc78bf0802180a72d73cce82f821c2"
          ],
          "data": "0x0000000000000000000000000000000000000000000000000000000000000033",
          "blockHash": "0xd14dc8f77c2ba833c232c33e9465aa075518a863cb97a53ed4ad660af091fd5a",
          "blockNumber": "0x483a83c",
          "transactionHash": "0x81ad66de15c2b15d76eca720d656d94077e7f0ab1b193b7c100768d2370a736d",
          "transactionIndex": "0x0",
          "logIndex": "0x17",
          "removed": false
        },
        {
          "address": "0x5d171e56da5c0299bb44fbbbd657cbe8b0644987",
          "topics": [
            "0x718b255a84139aecfbab57813fc3e5b5fc2c779128d7038e9d380e02bc0e2b29",
            "0x0000000000000000000000000000000000000000000000000000000000000001",
            "0x0000000000000000000000000000000000000000000000000000000000000001",
            "0x000000000000000000000000f132463a91c741698fee42cd69b87b40ec48f7f1"
          ],
          "data": "0x",
          "blockHash": "0xd14dc8f77c2ba833c232c33e9465aa075518a863cb97a53ed4ad660af091fd5a",
          "blockNumber": "0x483a83c",
          "transactionHash": "0x81ad66de15c2b15d76eca720d656d94077e7f0ab1b193b7c100768d2370a736d",
          "transactionIndex": "0x0",
          "logIndex": "0x18",
          "removed": false
        },
        {
          "address": "0x50e61c1b9fd2757f233872fddb039c073c525107",
          "topics": [
            "0x07dfe1412a47203cf6537cf2d918a9adc648870cd7ab04016d10d6901b207f4b",
            "0x0000000000000000000000000000000000000000000000000000000000000001",
            "0x000000000000000000000000f132463a91c741698fee42cd69b87b40ec48f7f1",
            "0x3100000000000000000000000000000000000000000000000000000000000000"
          ],
          "data": "0x0000000000000000000000000000000000000000000000000000000000000020000000000000000000000000000000000000000000000000000000000000000647656d696e690000000000000000000000000000000000000000000000000000",
          "blockHash": "0xd14dc8f77c2ba833c232c33e9465aa075518a863cb97a53ed4ad660af091fd5a",
          "blockNumber": "0x483a83c",
          "transactionHash": "0x81ad66de15c2b15d76eca720d656d94077e7f0ab1b193b7c100768d2370a736d",
          "transactionIndex": "0x0",
          "logIndex": "0x19",
          "removed": false
        }
      ],
      "logsBloom": "0x200000040000000008001000000000000800000001001000080000000001000000000200000000001080000000000040080000000004000000000000000408000000000000000000040010480000000000000010a00400020200000000000000000000000200804000000000c0001c34041040000020000810000010001000002000000008000004000800000000004000000000000088000000000000000000000400000010004000000200020000400014100020000120001004002000000800008402000000000000010000000000401000202015000100000080002060000000000000080004000000000000000000040000410000400000000000000008",
      "type": "0x2",
      "transactionHash": "0x81ad66de15c2b15d76eca720d656d94077e7f0ab1b193b7c100768d2370a736d",
      "transactionIndex": "0x0",
      "blockHash": "0xd14dc8f77c2ba833c232c33e9465aa075518a863cb97a53ed4ad660af091fd5a",
      "blockNumber": "0x483a83c",
      "gasUsed": "0x1d6f54",
      "effectiveGasPrice": "0x2e90edd01",
      "from": "0x3c5a809e712d30d932b71edb066fa2eedee6ad58",
      "to": "0x50e61c1b9fd2757f233872fddb039c073c525107",
      "contractAddress": null
    }
  ],
  "libraries": [],
  "pending": [],
  "returns": {},
  "timestamp": 1748594770,
  "chain": 51,
  "commit": "49f25c4"
}