{
  "transactions": [
    {
      "hash": "0x780e55d941ea54add6c39c32876cffce2a055de06695e7719c0e192c8f241094",
      "transactionType": "CALL",
      "contractName": null,
      "contractAddress": "0xc2bd23767e9ca47c9362e9059edae151dd07ef9e",
      "function": "registerCompany((string,string,uint8))",
      "arguments": [
        "(Amazon, India, 0)"
      ],
      "transaction": {
        "from": "0x3c5a809e712d30d932b71edb066fa2eedee6ad58",
        "to": "0xc2bd23767e9ca47c9362e9059edae151dd07ef9e",
        "gas": "0x65858",
        "value": "0x0",
        "input": "0x72ea08b00000000000000000000000000000000000000000000000000000000000000020000000000000000000000000000000000000000000000000000000000000006000000000000000000000000000000000000000000000000000000000000000a000000000000000000000000000000000000000000000000000000000000000000000000000000000000000000000000000000000000000000000000000000006416d617a6f6e00000000000000000000000000000000000000000000000000000000000000000000000000000000000000000000000000000000000000000005496e646961000000000000000000000000000000000000000000000000000000",
        "nonce": "0x26",
        "chainId": "0x161c28"
      },
      "additionalContracts": [],
      "isFixedGasLimit": false
    }
  ],
  "receipts": [
    {
      "status": "0x1",
      "cumulativeGasUsed": "0x253e61",
      "logs": [
        {
          "address": "0x3fc127a68116483d9fe79d8f6090e95d0708db4c",
          "topics": [
            "0x03cd167b04980b915d7fe24c6a5a08be27729b35da3f72c49aa30fbcd5aa6ee0",
            "0x0000000000000000000000000000000000000000000000000000000000000001",
            "0x0000000000000000000000003c5a809e712d30d932b71edb066fa2eedee6ad58"
          ],
          "data": "0x0000000000000000000000000000000000000000000000000000000000000060000000000000000000000000000000000000000000000000000000000000000000000000000000000000000000000000000000000000000000000000000000a00000000000000000000000000000000000000000000000000000000000000006416d617a6f6e00000000000000000000000000000000000000000000000000000000000000000000000000000000000000000000000000000000000000000005496e646961000000000000000000000000000000000000000000000000000000",
          "blockHash": "0xc7eb9d27d4f0f62a4f12eda8c6c2929c361357fd253d447747d940faedbacf73",
          "blockNumber": "0x1a0dc4",
          "transactionHash": "0x780e55d941ea54add6c39c32876cffce2a055de06695e7719c0e192c8f241094",
          "transactionIndex": "0xc",
          "logIndex": "0xf",
          "removed": false
        },
        {
          "address": "0xc2bd23767e9ca47c9362e9059edae151dd07ef9e",
          "topics": [
            "0xefa980f807c93e7f0adb08a55b41b92038bae1418c84ff23933499d67e138559",
            "0x0000000000000000000000000000000000000000000000000000000000000001",
            "0x0000000000000000000000003c5a809e712d30d932b71edb066fa2eedee6ad58"
          ],
          "data": "0x000000000000000000000000000000000000000000000000000000000000006000000000000000000000000000000000000000000000000000000000000000a000000000000000000000000000000000000000000000000000000000000000000000000000000000000000000000000000000000000000000000000000000006416d617a6f6e00000000000000000000000000000000000000000000000000000000000000000000000000000000000000000000000000000000000000000005496e646961000000000000000000000000000000000000000000000000000000",
          "blockHash": "0xc7eb9d27d4f0f62a4f12eda8c6c2929c361357fd253d447747d940faedbacf73",
          "blockNumber": "0x1a0dc4",
          "transactionHash": "0x780e55d941ea54add6c39c32876cffce2a055de06695e7719c0e192c8f241094",
          "transactionIndex": "0xc",
          "logIndex": "0x10",
          "removed": false
        }
      ],
      "logsBloom": "0x00000000000000000000000000000000000000000000000000000000000000000000020000000000000000000008000000000000100000000000000000040000000000000000000000000000000000000000000000040000000000000000001010000000000000000000000040000000000000000040000000000000000000000000000000000000000000000000000000000200000000000000000001000000000000000000000000000800000000000000000000000020000000000000000000000004000000000000000000000000000000000000080000000000000042000000000000000000000000000000000000000000000008000000000000000000",
      "type": "0x2",
      "transactionHash": "0x780e55d941ea54add6c39c32876cffce2a055de06695e7719c0e192c8f241094",
      "transactionIndex": "0xc",
      "blockHash": "0xc7eb9d27d4f0f62a4f12eda8c6c2929c361357fd253d447747d940faedbacf73",
      "blockNumber": "0x1a0dc4",
      "gasUsed": "0x456aa",
      "effectiveGasPrice": "0x400746fe00",
      "from": "0x3c5a809e712d30d932b71edb066fa2eedee6ad58",
      "to": "0xc2bd23767e9ca47c9362e9059edae151dd07ef9e",
      "contractAddress": null
    }
  ],
  "libraries": [],
  "pending": [],
  "returns": {},
  "timestamp": 1749555058,
  "chain": 1449000,
  "commit": "a98086c"
}