{
  "transactions": [
    {
      "hash": "0x9272c667a92af02deeac8e8f13acb75670b3810b4840bd1b333a0b8270806553",
      "transactionType": "CALL",
      "contractName": null,
      "contractAddress": "0xc2bd23767e9ca47c9362e9059edae151dd07ef9e",
      "function": "createProject(uint256,(address,string,string,uint8,uint256,uint256,uint256,address,bytes32,bytes32,bytes32,bytes32,uint256,uint256,uint256,uint256,uint256,uint256,uint8))",
      "arguments": [
        "1",
        "(0x0000000000000000000000000000000000000000, Akash Project, AK47, 18, 100000000000000000000, 100000000, 86400, 0x3c5a809e712D30D932b71EdB066FA2EEDEE6Ad58, 0x3100000000000000000000000000000000000000000000000000000000000000, 0x3100000000000000000000000000000000000000000000000000000000000000, 0x436f6d6d65726369616c00000000000000000000000000000000000000000000, 0x3100000000000000000000000000000000000000000000000000000000000000, 10, 100000000000000000000, 10000000000000000000, 80000000000000000000, 10, 31536000, 3)"
      ],
      "transaction": {
        "from": "0x3c5a809e712d30d932b71edb066fa2eedee6ad58",
        "to": "0xc2bd23767e9ca47c9362e9059edae151dd07ef9e",
        "gas": "0x29a98f",
        "value": "0x0",
        "input": "0x26f5b6eb000000000000000000000000000000000000000000000000000000000000000100000000000000000000000000000000000000000000000000000000000000400000000000000000000000000000000000000000000000000000000000000000000000000000000000000000000000000000000000000000000000000000026000000000000000000000000000000000000000000000000000000000000002a000000000000000000000000000000000000000000000000000000000000000120000000000000000000000000000000000000000000000056bc75e2d631000000000000000000000000000000000000000000000000000000000000005f5e10000000000000000000000000000000000000000000000000000000000000151800000000000000000000000003c5a809e712d30d932b71edb066fa2eedee6ad5831000000000000000000000000000000000000000000000000000000000000003100000000000000000000000000000000000000000000000000000000000000436f6d6d65726369616c000000000000000000000000000000000000000000003100000000000000000000000000000000000000000000000000000000000000000000000000000000000000000000000000000000000000000000000000000a0000000000000000000000000000000000000000000000056bc75e2d631000000000000000000000000000000000000000000000000000008ac7230489e80000000000000000000000000000000000000000000000000004563918244f400000000000000000000000000000000000000000000000000000000000000000000a0000000000000000000000000000000000000000000000000000000001e133800000000000000000000000000000000000000000000000000000000000000003000000000000000000000000000000000000000000000000000000000000000d416b6173682050726f6a656374000000000000000000000000000000000000000000000000000000000000000000000000000000000000000000000000000004414b343700000000000000000000000000000000000000000000000000000000",
        "nonce": "0x27",
        "chainId": "0x161c28"
      },
      "additionalContracts": [
        {
          "transactionType": "CREATE",
          "address": "0x19f4c368fa8937ecd61835b4ef674109512576be",
          "initCode": "0x3d602d80600a3d3981f3363d3d373d3d3d363d73cc910b92b345e78fcb19547d28dbfdacee758a515af43d82803e903d91602b57fd5bf3"
        },
        {
          "transactionType": "CREATE",
          "address": "0xd6c70ebd0c957c8be7fcc95d9dc56bc1e33e1dca",
          "initCode": "0x3d602d80600a3d3981f3363d3d373d3d3d363d73bc6e5f67387421a7e17a1cb450d92bfa5898bb475af43d82803e903d91602b57fd5bf3"
        },
        {
          "transactionType": "CREATE",
          "address": "0x4704f03322fa3949a5e319d11062a18b7a53cb6f",
          "initCode": "0x3d602d80600a3d3981f3363d3d373d3d3d363d736c7c15fbf8bf5b1a4f38804b5e8c00f427c469815af43d82803e903d91602b57fd5bf3"
        },
        {
          "transactionType": "CREATE",
          "address": "0x876f22b4f118efd0c44d17f2f65bcd8f4a27da89",
          "initCode": "0x3d602d80600a3d3981f3363d3d373d3d3d363d7379688482bdf100e9474dc7e40a9095b4ccb25b575af43d82803e903d91602b57fd5bf3"
        }
      ],
      "isFixedGasLimit": false
    }
  ],
  "receipts": [
    {
      "status": "0x1",
      "cumulativeGasUsed": "0x36e787",
      "logs": [
        {
          "address": "0x19f4c368fa8937ecd61835b4ef674109512576be",
          "topics": [
            "0x2f8788117e7eff1d82e926ec794901d17c78024a50270940304540a733656f0d",
            "0x0000000000000000000000000000000000000000000000000000000000000000",
            "0x0000000000000000000000003c5a809e712d30d932b71edb066fa2eedee6ad58",
            "0x000000000000000000000000c2bd23767e9ca47c9362e9059edae151dd07ef9e"
          ],
          "data": "0x",
          "blockHash": "0x1e7f7eaa22de991a2333b6c2dc0cde40e573aef6ee7ff93e61ba2bd7eaa3fe2f",
          "blockNumber": "0x1a0dde",
          "transactionHash": "0x9272c667a92af02deeac8e8f13acb75670b3810b4840bd1b333a0b8270806553",
          "transactionIndex": "0xb",
          "logIndex": "0x8",
          "removed": false
        },
        {
          "address": "0x19f4c368fa8937ecd61835b4ef674109512576be",
          "topics": [
            "0x2f8788117e7eff1d82e926ec794901d17c78024a50270940304540a733656f0d",
            "0xa49807205ce4d355092ef5a8a18f56e8913cf4a201fbe287825b095693c21775",
            "0x0000000000000000000000003c5a809e712d30d932b71edb066fa2eedee6ad58",
            "0x000000000000000000000000c2bd23767e9ca47c9362e9059edae151dd07ef9e"
          ],
          "data": "0x",
          "blockHash": "0x1e7f7eaa22de991a2333b6c2dc0cde40e573aef6ee7ff93e61ba2bd7eaa3fe2f",
          "blockNumber": "0x1a0dde",
          "transactionHash": "0x9272c667a92af02deeac8e8f13acb75670b3810b4840bd1b333a0b8270806553",
          "transactionIndex": "0xb",
          "logIndex": "0x9",
          "removed": false
        },
        {
          "address": "0x19f4c368fa8937ecd61835b4ef674109512576be",
          "topics": [
            "0xbd79b86ffe0ab8e8776151514217cd7cacd52c909f66475c3af44e129f0b00ff",
            "0x52eafc11f6f81f86878bffd31109a0d92f37506527754f00788853ff9f63b130",
            "0x0000000000000000000000000000000000000000000000000000000000000000",
            "0xa49807205ce4d355092ef5a8a18f56e8913cf4a201fbe287825b095693c21775"
          ],
          "data": "0x",
          "blockHash": "0x1e7f7eaa22de991a2333b6c2dc0cde40e573aef6ee7ff93e61ba2bd7eaa3fe2f",
          "blockNumber": "0x1a0dde",
          "transactionHash": "0x9272c667a92af02deeac8e8f13acb75670b3810b4840bd1b333a0b8270806553",
          "transactionIndex": "0xb",
          "logIndex": "0xa",
          "removed": false
        },
        {
          "address": "0x19f4c368fa8937ecd61835b4ef674109512576be",
          "topics": [
            "0xbd79b86ffe0ab8e8776151514217cd7cacd52c909f66475c3af44e129f0b00ff",
            "0x9f2df0fed2c77648de5860a4cc508cd0818c85b8b8a1ab4ceeef8d981c8956a6",
            "0x0000000000000000000000000000000000000000000000000000000000000000",
            "0xa49807205ce4d355092ef5a8a18f56e8913cf4a201fbe287825b095693c21775"
          ],
          "data": "0x",
          "blockHash": "0x1e7f7eaa22de991a2333b6c2dc0cde40e573aef6ee7ff93e61ba2bd7eaa3fe2f",
          "blockNumber": "0x1a0dde",
          "transactionHash": "0x9272c667a92af02deeac8e8f13acb75670b3810b4840bd1b333a0b8270806553",
          "transactionIndex": "0xb",
          "logIndex": "0xb",
          "removed": false
        },
        {
          "address": "0x19f4c368fa8937ecd61835b4ef674109512576be",
          "topics": [
            "0x2f8788117e7eff1d82e926ec794901d17c78024a50270940304540a733656f0d",
            "0x52eafc11f6f81f86878bffd31109a0d92f37506527754f00788853ff9f63b130",
            "0x0000000000000000000000003c5a809e712d30d932b71edb066fa2eedee6ad58",
            "0x000000000000000000000000c2bd23767e9ca47c9362e9059edae151dd07ef9e"
          ],
          "data": "0x",
          "blockHash": "0x1e7f7eaa22de991a2333b6c2dc0cde40e573aef6ee7ff93e61ba2bd7eaa3fe2f",
          "blockNumber": "0x1a0dde",
          "transactionHash": "0x9272c667a92af02deeac8e8f13acb75670b3810b4840bd1b333a0b8270806553",
          "transactionIndex": "0xb",
          "logIndex": "0xc",
          "removed": false
        },
        {
          "address": "0x19f4c368fa8937ecd61835b4ef674109512576be",
          "topics": [
            "0x2f8788117e7eff1d82e926ec794901d17c78024a50270940304540a733656f0d",
            "0x9f2df0fed2c77648de5860a4cc508cd0818c85b8b8a1ab4ceeef8d981c8956a6",
            "0x000000000000000000000000c2bd23767e9ca47c9362e9059edae151dd07ef9e",
            "0x000000000000000000000000c2bd23767e9ca47c9362e9059edae151dd07ef9e"
          ],
          "data": "0x",
          "blockHash": "0x1e7f7eaa22de991a2333b6c2dc0cde40e573aef6ee7ff93e61ba2bd7eaa3fe2f",
          "blockNumber": "0x1a0dde",
          "transactionHash": "0x9272c667a92af02deeac8e8f13acb75670b3810b4840bd1b333a0b8270806553",
          "transactionIndex": "0xb",
          "logIndex": "0xd",
          "removed": false
        },
        {
          "address": "0x19f4c368fa8937ecd61835b4ef674109512576be",
          "topics": [
            "0xd2be862d755bca7e0d39772b2cab3a5578da9c285f69199f4c063c2294a7f36c",
            "0x0000000000000000000000000000000000000000000000000000000000000001"
          ],
          "data": "0x",
          "blockHash": "0x1e7f7eaa22de991a2333b6c2dc0cde40e573aef6ee7ff93e61ba2bd7eaa3fe2f",
          "blockNumber": "0x1a0dde",
          "transactionHash": "0x9272c667a92af02deeac8e8f13acb75670b3810b4840bd1b333a0b8270806553",
          "transactionIndex": "0xb",
          "logIndex": "0xe",
          "removed": false
        },
        {
          "address": "0x19f4c368fa8937ecd61835b4ef674109512576be",
          "topics": [
            "0x7f3a888862559648ec01d97deb7b5012bff86dc91e654a1de397170db40e35b6",
            "0x0000000000000000000000000000000000000000000000000000000000000001"
          ],
          "data": "0x",
          "blockHash": "0x1e7f7eaa22de991a2333b6c2dc0cde40e573aef6ee7ff93e61ba2bd7eaa3fe2f",
          "blockNumber": "0x1a0dde",
          "transactionHash": "0x9272c667a92af02deeac8e8f13acb75670b3810b4840bd1b333a0b8270806553",
          "transactionIndex": "0xb",
          "logIndex": "0xf",
          "removed": false
        },
        {
          "address": "0x19f4c368fa8937ecd61835b4ef674109512576be",
          "topics": [
            "0x6a1105ac8148a3c319adbc369f9072573e8a11d3a3d195e067e7c40767ec54d1",
            "0x02ddf3e9806e2147314214ecf676cc6f5ac7f17c471d6ba482a85d9331d1ef74",
            "0x57b554bb1d64001a0bb177c55a04c72cb56c17cede7a37cfe249905a7cd79ce3",
            "0x0000000000000000000000000000000000000000000000000000000000000000"
          ],
          "data": "0x000000000000000000000000000000000000000000000000000000000000001200000000000000000000000000000000000000000000000000000000000000400000000000000000000000000000000000000000000000000000000000000005312e302e30000000000000000000000000000000000000000000000000000000",
          "blockHash": "0x1e7f7eaa22de991a2333b6c2dc0cde40e573aef6ee7ff93e61ba2bd7eaa3fe2f",
          "blockNumber": "0x1a0dde",
          "transactionHash": "0x9272c667a92af02deeac8e8f13acb75670b3810b4840bd1b333a0b8270806553",
          "transactionIndex": "0xb",
          "logIndex": "0x10",
          "removed": false
        },
        {
          "address": "0x19f4c368fa8937ecd61835b4ef674109512576be",
          "topics": [
            "0xc7f505b2f371ae2175ee4913f4499e1f2633a7b5936321eed1cdaeb6115181d2"
          ],
          "data": "0x0000000000000000000000000000000000000000000000000000000000000001",
          "blockHash": "0x1e7f7eaa22de991a2333b6c2dc0cde40e573aef6ee7ff93e61ba2bd7eaa3fe2f",
          "blockNumber": "0x1a0dde",
          "transactionHash": "0x9272c667a92af02deeac8e8f13acb75670b3810b4840bd1b333a0b8270806553",
          "transactionIndex": "0xb",
          "logIndex": "0x11",
          "removed": false
        },
        {
          "address": "0xd6c70ebd0c957c8be7fcc95d9dc56bc1e33e1dca",
          "topics": [
            "0x2f8788117e7eff1d82e926ec794901d17c78024a50270940304540a733656f0d",
            "0x0000000000000000000000000000000000000000000000000000000000000000",
            "0x0000000000000000000000003c5a809e712d30d932b71edb066fa2eedee6ad58",
            "0x000000000000000000000000c2bd23767e9ca47c9362e9059edae151dd07ef9e"
          ],
          "data": "0x",
          "blockHash": "0x1e7f7eaa22de991a2333b6c2dc0cde40e573aef6ee7ff93e61ba2bd7eaa3fe2f",
          "blockNumber": "0x1a0dde",
          "transactionHash": "0x9272c667a92af02deeac8e8f13acb75670b3810b4840bd1b333a0b8270806553",
          "transactionIndex": "0xb",
          "logIndex": "0x12",
          "removed": false
        },
        {
          "address": "0xd6c70ebd0c957c8be7fcc95d9dc56bc1e33e1dca",
          "topics": [
            "0x2f8788117e7eff1d82e926ec794901d17c78024a50270940304540a733656f0d",
            "0xa49807205ce4d355092ef5a8a18f56e8913cf4a201fbe287825b095693c21775",
            "0x0000000000000000000000003c5a809e712d30d932b71edb066fa2eedee6ad58",
            "0x000000000000000000000000c2bd23767e9ca47c9362e9059edae151dd07ef9e"
          ],
          "data": "0x",
          "blockHash": "0x1e7f7eaa22de991a2333b6c2dc0cde40e573aef6ee7ff93e61ba2bd7eaa3fe2f",
          "blockNumber": "0x1a0dde",
          "transactionHash": "0x9272c667a92af02deeac8e8f13acb75670b3810b4840bd1b333a0b8270806553",
          "transactionIndex": "0xb",
          "logIndex": "0x13",
          "removed": false
        },
        {
          "address": "0xd6c70ebd0c957c8be7fcc95d9dc56bc1e33e1dca",
          "topics": [
            "0xd97ee51c68a68108a8d9786994892af921c0228dcd80fb655dee9bb51fc01c70",
            "0x0000000000000000000000008c99b4e51ea9aa3df5f44faef0061f7ad9ef5102",
            "0x00000000000000000000000019f4c368fa8937ecd61835b4ef674109512576be"
          ],
          "data": "0x",
          "blockHash": "0x1e7f7eaa22de991a2333b6c2dc0cde40e573aef6ee7ff93e61ba2bd7eaa3fe2f",
          "blockNumber": "0x1a0dde",
          "transactionHash": "0x9272c667a92af02deeac8e8f13acb75670b3810b4840bd1b333a0b8270806553",
          "transactionIndex": "0xb",
          "logIndex": "0x14",
          "removed": false
        },
        {
          "address": "0xd6c70ebd0c957c8be7fcc95d9dc56bc1e33e1dca",
          "topics": [
            "0xc7f505b2f371ae2175ee4913f4499e1f2633a7b5936321eed1cdaeb6115181d2"
          ],
          "data": "0x0000000000000000000000000000000000000000000000000000000000000001",
          "blockHash": "0x1e7f7eaa22de991a2333b6c2dc0cde40e573aef6ee7ff93e61ba2bd7eaa3fe2f",
          "blockNumber": "0x1a0dde",
          "transactionHash": "0x9272c667a92af02deeac8e8f13acb75670b3810b4840bd1b333a0b8270806553",
          "transactionIndex": "0xb",
          "logIndex": "0x15",
          "removed": false
        },
        {
          "address": "0x4704f03322fa3949a5e319d11062a18b7a53cb6f",
          "topics": [
            "0x2f8788117e7eff1d82e926ec794901d17c78024a50270940304540a733656f0d",
            "0x0000000000000000000000000000000000000000000000000000000000000000",
            "0x0000000000000000000000003c5a809e712d30d932b71edb066fa2eedee6ad58",
            "0x000000000000000000000000c2bd23767e9ca47c9362e9059edae151dd07ef9e"
          ],
          "data": "0x",
          "blockHash": "0x1e7f7eaa22de991a2333b6c2dc0cde40e573aef6ee7ff93e61ba2bd7eaa3fe2f",
          "blockNumber": "0x1a0dde",
          "transactionHash": "0x9272c667a92af02deeac8e8f13acb75670b3810b4840bd1b333a0b8270806553",
          "transactionIndex": "0xb",
          "logIndex": "0x16",
          "removed": false
        },
        {
          "address": "0x4704f03322fa3949a5e319d11062a18b7a53cb6f",
          "topics": [
            "0x2f8788117e7eff1d82e926ec794901d17c78024a50270940304540a733656f0d",
            "0xa49807205ce4d355092ef5a8a18f56e8913cf4a201fbe287825b095693c21775",
            "0x0000000000000000000000003c5a809e712d30d932b71edb066fa2eedee6ad58",
            "0x000000000000000000000000c2bd23767e9ca47c9362e9059edae151dd07ef9e"
          ],
          "data": "0x",
          "blockHash": "0x1e7f7eaa22de991a2333b6c2dc0cde40e573aef6ee7ff93e61ba2bd7eaa3fe2f",
          "blockNumber": "0x1a0dde",
          "transactionHash": "0x9272c667a92af02deeac8e8f13acb75670b3810b4840bd1b333a0b8270806553",
          "transactionIndex": "0xb",
          "logIndex": "0x17",
          "removed": false
        },
        {
          "address": "0x4704f03322fa3949a5e319d11062a18b7a53cb6f",
          "topics": [
            "0xad307780531f6353137c35adc50ad58d71b76e76aa891e729387f2e720f2de20"
          ],
          "data": "0x0000000000000000000000008c99b4e51ea9aa3df5f44faef0061f7ad9ef5102000000000000000000000000d6c70ebd0c957c8be7fcc95d9dc56bc1e33e1dca00000000000000000000000019f4c368fa8937ecd61835b4ef674109512576be",
          "blockHash": "0x1e7f7eaa22de991a2333b6c2dc0cde40e573aef6ee7ff93e61ba2bd7eaa3fe2f",
          "blockNumber": "0x1a0dde",
          "transactionHash": "0x9272c667a92af02deeac8e8f13acb75670b3810b4840bd1b333a0b8270806553",
          "transactionIndex": "0xb",
          "logIndex": "0x18",
          "removed": false
        },
        {
          "address": "0x4704f03322fa3949a5e319d11062a18b7a53cb6f",
          "topics": [
            "0xc7f505b2f371ae2175ee4913f4499e1f2633a7b5936321eed1cdaeb6115181d2"
          ],
          "data": "0x0000000000000000000000000000000000000000000000000000000000000001",
          "blockHash": "0x1e7f7eaa22de991a2333b6c2dc0cde40e573aef6ee7ff93e61ba2bd7eaa3fe2f",
          "blockNumber": "0x1a0dde",
          "transactionHash": "0x9272c667a92af02deeac8e8f13acb75670b3810b4840bd1b333a0b8270806553",
          "transactionIndex": "0xb",
          "logIndex": "0x19",
          "removed": false
        },
        {
          "address": "0x876f22b4f118efd0c44d17f2f65bcd8f4a27da89",
          "topics": [
            "0x2f8788117e7eff1d82e926ec794901d17c78024a50270940304540a733656f0d",
            "0x0000000000000000000000000000000000000000000000000000000000000000",
            "0x000000000000000000000000c2bd23767e9ca47c9362e9059edae151dd07ef9e",
            "0x000000000000000000000000c2bd23767e9ca47c9362e9059edae151dd07ef9e"
          ],
          "data": "0x",
          "blockHash": "0x1e7f7eaa22de991a2333b6c2dc0cde40e573aef6ee7ff93e61ba2bd7eaa3fe2f",
          "blockNumber": "0x1a0dde",
          "transactionHash": "0x9272c667a92af02deeac8e8f13acb75670b3810b4840bd1b333a0b8270806553",
          "transactionIndex": "0xb",
          "logIndex": "0x1a",
          "removed": false
        },
        {
          "address": "0x876f22b4f118efd0c44d17f2f65bcd8f4a27da89",
          "topics": [
            "0x2f8788117e7eff1d82e926ec794901d17c78024a50270940304540a733656f0d",
            "0xa49807205ce4d355092ef5a8a18f56e8913cf4a201fbe287825b095693c21775",
            "0x000000000000000000000000c2bd23767e9ca47c9362e9059edae151dd07ef9e",
            "0x000000000000000000000000c2bd23767e9ca47c9362e9059edae151dd07ef9e"
          ],
          "data": "0x",
          "blockHash": "0x1e7f7eaa22de991a2333b6c2dc0cde40e573aef6ee7ff93e61ba2bd7eaa3fe2f",
          "blockNumber": "0x1a0dde",
          "transactionHash": "0x9272c667a92af02deeac8e8f13acb75670b3810b4840bd1b333a0b8270806553",
          "transactionIndex": "0xb",
          "logIndex": "0x1b",
          "removed": false
        },
        {
          "address": "0x876f22b4f118efd0c44d17f2f65bcd8f4a27da89",
          "topics": [
            "0x3a9f71ef016a86fc2e72ee148d638323df4d11fc8ca73fc41ca78223de0138cd",
            "0x000000000000000000000000784e7debd0690697b69688b6daa684611b6b8079",
            "0x00000000000000000000000019f4c368fa8937ecd61835b4ef674109512576be"
          ],
          "data": "0x000000000000000000000000000000000000000000000000000000000000003c",
          "blockHash": "0x1e7f7eaa22de991a2333b6c2dc0cde40e573aef6ee7ff93e61ba2bd7eaa3fe2f",
          "blockNumber": "0x1a0dde",
          "transactionHash": "0x9272c667a92af02deeac8e8f13acb75670b3810b4840bd1b333a0b8270806553",
          "transactionIndex": "0xb",
          "logIndex": "0x1c",
          "removed": false
        },
        {
          "address": "0x876f22b4f118efd0c44d17f2f65bcd8f4a27da89",
          "topics": [
            "0xc7f505b2f371ae2175ee4913f4499e1f2633a7b5936321eed1cdaeb6115181d2"
          ],
          "data": "0x0000000000000000000000000000000000000000000000000000000000000001",
          "blockHash": "0x1e7f7eaa22de991a2333b6c2dc0cde40e573aef6ee7ff93e61ba2bd7eaa3fe2f",
          "blockNumber": "0x1a0dde",
          "transactionHash": "0x9272c667a92af02deeac8e8f13acb75670b3810b4840bd1b333a0b8270806553",
          "transactionIndex": "0xb",
          "logIndex": "0x1d",
          "removed": false
        },
        {
          "address": "0x19f4c368fa8937ecd61835b4ef674109512576be",
          "topics": [
            "0xddf252ad1be2c89b69c2b068fc378daa952ba7f163c4a11628f55a4df523b3ef",
            "0x0000000000000000000000000000000000000000000000000000000000000000",
            "0x000000000000000000000000d6c70ebd0c957c8be7fcc95d9dc56bc1e33e1dca"
          ],
          "data": "0x0000000000000000000000000000000000000000000000056bc75e2d63100000",
          "blockHash": "0x1e7f7eaa22de991a2333b6c2dc0cde40e573aef6ee7ff93e61ba2bd7eaa3fe2f",
          "blockNumber": "0x1a0dde",
          "transactionHash": "0x9272c667a92af02deeac8e8f13acb75670b3810b4840bd1b333a0b8270806553",
          "transactionIndex": "0xb",
          "logIndex": "0x1e",
          "removed": false
        },
        {
          "address": "0x19f4c368fa8937ecd61835b4ef674109512576be",
          "topics": [
            "0xf1f9ee5e798a3100a7f61382bd3afe83ed0890032abdbcd484d069d91419924a",
            "0x000000000000000000000000d6c70ebd0c957c8be7fcc95d9dc56bc1e33e1dca",
            "0x0000000000000000000000004704f03322fa3949a5e319d11062a18b7a53cb6f",
            "0x000000000000000000000000876f22b4f118efd0c44d17f2f65bcd8f4a27da89"
          ],
          "data": "0x0000000000000000000000000000000000000000000000056bc75e2d63100000",
          "blockHash": "0x1e7f7eaa22de991a2333b6c2dc0cde40e573aef6ee7ff93e61ba2bd7eaa3fe2f",
          "blockNumber": "0x1a0dde",
          "transactionHash": "0x9272c667a92af02deeac8e8f13acb75670b3810b4840bd1b333a0b8270806553",
          "transactionIndex": "0xb",
          "logIndex": "0x1f",
          "removed": false
        },
        {
          "address": "0xd6c70ebd0c957c8be7fcc95d9dc56bc1e33e1dca",
          "topics": [
            "0x93b2111648056edfbf697a6e5572b48d73189abb07ffccef988497b98e395066",
            "0x0000000000000000000000008c99b4e51ea9aa3df5f44faef0061f7ad9ef5102",
            "0x00000000000000000000000019f4c368fa8937ecd61835b4ef674109512576be"
          ],
          "data": "0x",
          "blockHash": "0x1e7f7eaa22de991a2333b6c2dc0cde40e573aef6ee7ff93e61ba2bd7eaa3fe2f",
          "blockNumber": "0x1a0dde",
          "transactionHash": "0x9272c667a92af02deeac8e8f13acb75670b3810b4840bd1b333a0b8270806553",
          "transactionIndex": "0xb",
          "logIndex": "0x20",
          "removed": false
        },
        {
          "address": "0x4704f03322fa3949a5e319d11062a18b7a53cb6f",
          "topics": [
            "0x285a37c74a68875398fd48c79cb9da5a63e5ebcb7c5b9cc08cdc9f9af9ae4589",
            "0x0000000000000000000000008c99b4e51ea9aa3df5f44faef0061f7ad9ef5102",
            "0x000000000000000000000000d6c70ebd0c957c8be7fcc95d9dc56bc1e33e1dca",
            "0x00000000000000000000000019f4c368fa8937ecd61835b4ef674109512576be"
          ],
          "data": "0x",
          "blockHash": "0x1e7f7eaa22de991a2333b6c2dc0cde40e573aef6ee7ff93e61ba2bd7eaa3fe2f",
          "blockNumber": "0x1a0dde",
          "transactionHash": "0x9272c667a92af02deeac8e8f13acb75670b3810b4840bd1b333a0b8270806553",
          "transactionIndex": "0xb",
          "logIndex": "0x21",
          "removed": false
        },
        {
          "address": "0x3fc127a68116483d9fe79d8f6090e95d0708db4c",
          "topics": [
            "0x718b255a84139aecfbab57813fc3e5b5fc2c779128d7038e9d380e02bc0e2b29",
            "0x0000000000000000000000000000000000000000000000000000000000000001",
            "0x0000000000000000000000000000000000000000000000000000000000000001",
            "0x00000000000000000000000019f4c368fa8937ecd61835b4ef674109512576be"
          ],
          "data": "0x",
          "blockHash": "0x1e7f7eaa22de991a2333b6c2dc0cde40e573aef6ee7ff93e61ba2bd7eaa3fe2f",
          "blockNumber": "0x1a0dde",
          "transactionHash": "0x9272c667a92af02deeac8e8f13acb75670b3810b4840bd1b333a0b8270806553",
          "transactionIndex": "0xb",
          "logIndex": "0x22",
          "removed": false
        },
        {
          "address": "0xc2bd23767e9ca47c9362e9059edae151dd07ef9e",
          "topics": [
            "0x4ee224805c8c13b244578fdf5cad26e3f7bd729a9352464176b17e9b1dedba2b",
            "0x0000000000000000000000000000000000000000000000000000000000000001",
            "0x00000000000000000000000019f4c368fa8937ecd61835b4ef674109512576be",
            "0x000000000000000000000000d6c70ebd0c957c8be7fcc95d9dc56bc1e33e1dca"
          ],
          "data": "0x0000000000000000000000004704f03322fa3949a5e319d11062a18b7a53cb6f000000000000000000000000876f22b4f118efd0c44d17f2f65bcd8f4a27da8931000000000000000000000000000000000000000000000000000000000000000000000000000000000000000000000000000000000000000000000000000080000000000000000000000000000000000000000000000000000000000000000d416b6173682050726f6a65637400000000000000000000000000000000000000",
          "blockHash": "0x1e7f7eaa22de991a2333b6c2dc0cde40e573aef6ee7ff93e61ba2bd7eaa3fe2f",
          "blockNumber": "0x1a0dde",
          "transactionHash": "0x9272c667a92af02deeac8e8f13acb75670b3810b4840bd1b333a0b8270806553",
          "transactionIndex": "0xb",
          "logIndex": "0x23",
          "removed": false
        }
      ],
      "logsBloom": "0x00000004004400000800100000000000080000004004000001004080000020000000020000100000080000020008004000c00002000000200a000000000400001004800000001000040004080001000000000010600404020400050000000010100000000a0000c00200000040000800040080000040000800004010001000000040000000004020400800001042204100000200000088000000001000000002044010000008000000000000000000000000800000080020001000001002000200002006000000000000000000000000401001000004000100000000000064000000000002080000008000201080000100000000602008000000000000000000",
      "type": "0x2",
      "transactionHash": "0x9272c667a92af02deeac8e8f13acb75670b3810b4840bd1b333a0b8270806553",
      "transactionIndex": "0xb",
      "blockHash": "0x1e7f7eaa22de991a2333b6c2dc0cde40e573aef6ee7ff93e61ba2bd7eaa3fe2f",
      "blockNumber": "0x1a0dde",
      "gasUsed": "0x1e29ad",
      "effectiveGasPrice": "0x400746fe00",
      "from": "0x3c5a809e712d30d932b71edb066fa2eedee6ad58",
      "to": "0xc2bd23767e9ca47c9362e9059edae151dd07ef9e",
      "contractAddress": null
    }
  ],
  "libraries": [],
  "pending": [],
  "returns": {},
  "timestamp": 1749555209,
  "chain": 1449000,
  "commit": "a98086c"
}