{
  "transactions": [
    {
      "hash": "0xe2611046793e5aaa26cd7f8b769684a67745707e81b64a294dcee2998d78fe89",
      "transactionType": "CALL",
      "contractName": null,
      "contractAddress": "0xbdfe3b3abe5ac3327a37ee78bc58890b0482b143",
      "function": "setCoreContracts(address,address,address)",
      "arguments": [
        "0x8c99B4e51eA9Aa3df5F44FAeF0061f7Ad9Ef5102",
        "0x784E7DeBd0690697B69688B6daA684611b6B8079",
        "0x370a3b5Cb223d2C047C2666Aa567Cc76D5410f0b"
      ],
      "transaction": {
        "from": "0x3c5a809e712d30d932b71edb066fa2eedee6ad58",
        "to": "0xbdfe3b3abe5ac3327a37ee78bc58890b0482b143",
        "gas": "0x17bea",
        "value": "0x0",
        "input": "0xefa891c40000000000000000000000008c99b4e51ea9aa3df5f44faef0061f7ad9ef5102000000000000000000000000784e7debd0690697b69688b6daa684611b6b8079000000000000000000000000370a3b5cb223d2c047c2666aa567cc76d5410f0b",
        "nonce": "0x14",
        "chainId": "0x161c28"
      },
      "additionalContracts": [],
      "isFixedGasLimit": false
    }
  ],
  "receipts": [
    {
      "status": "0x1",
      "cumulativeGasUsed": "0x7b39b7",
      "logs": [
        {
          "address": "0xbdfe3b3abe5ac3327a37ee78bc58890b0482b143",
          "topics": [
            "0x32f3480588270473dc6418270d922a820dd9e914739e09a98241457dca2fd560",
            "0x0000000000000000000000008c99b4e51ea9aa3df5f44faef0061f7ad9ef5102",
            "0x000000000000000000000000784e7debd0690697b69688b6daa684611b6b8079",
            "0x000000000000000000000000370a3b5cb223d2c047c2666aa567cc76d5410f0b"
          ],
          "data": "0x",
          "blockHash": "0x71a3b62de9ba98b5d60f75b3e3c7e494d15173b758674f6e2e2284eceb8df8e6",
          "blockNumber": "0x18e639",
          "transactionHash": "0xe2611046793e5aaa26cd7f8b769684a67745707e81b64a294dcee2998d78fe89",
          "transactionIndex": "0x10",
          "logIndex": "0x16",
          "removed": false
        }
      ],
      "logsBloom": "0x00000000000000000000000000000000000000000000002000000000000000000000000000000000000000000000000000000002000000010000800000000000000000000000000000000000000000000000000000000000000000000000000000000000000000000000000000000000000080000000000000000000080000000000000000000020000000000004000100000000000000000000000000000000000000000000000000010000000000000000000000080000000000000000000000000000000000000004000000000000000000000200000000000000000000000000000000000000000000000000000000000000002000000000800000000000",
      "type": "0x2",
      "transactionHash": "0xe2611046793e5aaa26cd7f8b769684a67745707e81b64a294dcee2998d78fe89",
      "transactionIndex": "0x10",
      "blockHash": "0x71a3b62de9ba98b5d60f75b3e3c7e494d15173b758674f6e2e2284eceb8df8e6",
      "blockNumber": "0x18e639",
      "gasUsed": "0x1130e",
      "effectiveGasPrice": "0x2f25f0c900",
      "from": "0x3c5a809e712d30d932b71edb066fa2eedee6ad58",
      "to": "0xbdfe3b3abe5ac3327a37ee78bc58890b0482b143",
      "contractAddress": null
    }
  ],
  "libraries": [],
  "pending": [],
  "returns": {},
  "timestamp": 1749117149,
  "chain": 1449000,
  "commit": "2fd1f9e"
}